:020000022000DC
:1070000000600020F5C30200E1C00300E1C30200FC
:10701000E1C30200E1C30200E1C30200000000007E
:10702000000000000000000000000000CDC40200CD
:10703000E1C302000000000069C40200E1C30200D5
:10704000A1C6020061240300A1C60200A1C602007D
:10705000A1C60200A1C60200A1C60200A1C602008C
:10706000A1C60200A1C60200A1C60200A1C602007C
:10707000A1C60200A1C60200A1C60200A1C602006C
:10708000A1C60200A1C60200A1C60200A1C602005C
:10709000A1C60200A1C60200A1C60200A1C602004C
:1070A000A1C60200A1C60200A1C60200A1C602003C
:1070B000A1C60200A1C60200A1C60200A1C602002C
:1070C000A1C60200A1C60200A1C60200A1C602001C
:1070D000A1C60200A1C60200A1C60200A1C602000C
:1070E000A1C60200A1C60200A1C60200A1C60200FC
:1070F000A1C60200A1C60200A1C60200A1C60200EC
:107100007BB972B90029BEBF00204FF0004106E0F4
:1071100008BF00281CBF6FF000414FF0FF3000F0A7
:1071200057B8ADF1080C6DE904CE002909DB002B3E
:107130001ADB00F069F8DDF804E0DDE9022304B0B1
:107140007047404261EB4101002B1BDB00F05CF813
:10715000DDF804E0DDE9022304B0404261EB4101C7
:10716000524263EB43037047524263EB430300F028
:107170004BF8DDF804E0DDE9022304B0404261EBA6
:1071800041017047524263EB430300F03DF8DDF8E4
:1071900004E0DDE9022304B0524263EB430370478D
:1071A00053B94AB9002908BF00281CBF4FF0FF316E
:1071B0004FF0FF3000F00CB8ADF1080C6DE904CED3
:1071C00000F022F8DDF804E0DDE9022304B07047A6
:1071D000704700BF10F8012B11F8013B012A28BFAE
:1071E0009A42F7D0D01A7047034611F8012B03F8E2
:1071F000012B002AF9D17047034613F8012B002A0E
:10720000FBD1181A013870472DE9F04786468C46A5
:107210000846089E154674461946002B40F0C28069
:107220008542B2FA82F245D94AB1C2F1200300FA8E
:1072300002FC2EFA03F3954043EA0C0C94404FEA0B
:10724000154EA8B2BCFBFEF8230C0EFB18CC08FBB5
:1072500000F943EA0C43994528D9EB1808F1FF37A8
:1072600004D2994502D9A8F102072B44A3EB0903E4
:10727000A4B2B3FBFEFC0EFB1C330CFB00F044EA93
:107280000344A04214D92C190CF1FF3304D2A042BC
:1072900002D9ACF102032C44241A43EA07401EB180
:1072A000D440002334607360BDE8F0874746DDE7D3
:1072B0006346F1E792BB431B01214FEA154EAFB283
:1072C000B3FBFEFC200C0EFB1C330CFB07F840EA62
:1072D0000343984562D9EB180CF1FF3004D298456E
:1072E00002D9ACF102002B44A3EB0803A4B2B3FB18
:1072F000FEFC0EFB1C330CFB07F744EA0344A742D9
:107300004ED92C190CF1FF3304D2A74202D9ACF1AB
:1073100002032C44E41B43EA0040C0E7C2F120030F
:1073200020FA03F1954090402EFA03F303434FEA0D
:10733000154EAFB2B1FBFEFC0EFB1C10190C0CFB82
:1073400007F841EA0041884504FA02F422D9691895
:107350000CF1FF3004D2884502D9ACF10200294477
:10736000A1EB08019BB2B1FBFEFC0EFB1C110CFB58
:1073700007F743EA01439F420ED9EB180CF1FF31A6
:1073800004D29F4202D9ACF102012B44DB1B41EA3B
:10739000004192E76046E3E76146F7E76046A3E70E
:1073A0006346B7E7834206D916B9002108467BE752
:1073B000C6E900E0F9E7B3FA83F78FB9834201D356
:1073C000724508D8BEEB020460EB030301209C4623
:1073D0001EB9002168E73846FAE7C6E9004CF8E72D
:1073E000C7F1200CBB4022FA0CF41C432EFA0CF11E
:1073F00020FA0CF3B84001434FEA14490EFA07F59E
:10740000B3FBF9F81FFA84FE09FB18300B0C08FBDC
:107410000EFA43EA00439A4502FA07F240D9E3180C
:1074200008F1FF3004D29A4502D9A8F102002344A2
:10743000A3EB0A0389B2B3FBF9F809FB183308FB85
:107440000EFE41EA03418E452CD9611808F1FF3345
:1074500004D28E4502D9A8F10203214443EA004038
:10746000A0FB0298A1EB0E014145CE46434602D354
:1074700006D14D4504D2B9EB020E68EB0403013886
:10748000002EA6D0B5EB0E0261EB030101FA0CFC55
:1074900022FA07F34CEA0303F940C6E9003198E702
:1074A0004046C5E74346D9E72DE9F047064688B090
:1074B0000F46904617F0CDFF4FF47A73A0FB0345BB
:1074C00003FB0155E40B012F44EA45444FEAD5354F
:1074D00007D1294922462B46304613F06BFD002088
:1074E00012E0D8F8047025483946FFF773FE70B1F2
:1074F00023483946FFF76EFE48B1304621493A46E7
:1075000013F074FD6FF0040008B0BDE8F08720466A
:10751000294617A3D3E90023FFF7F2FD05460C46E1
:1075200010461946184A0023FFF7EAFD80460F4629
:10753000104619464EF660220023FFF7E1FD824611
:107540008946104619464FF47A720023FFF7D8FD9A
:10755000CDE902A9CDE90623CDE90401CDE90087F3
:107560000A492A462346304613F024FDB7E700BFF8
:10757000005C260500000000DB100400EC10040095
:10758000EF100400F810040080EE36001011040023
:107590002DE9F041684C94F832308CB003F00103CF
:1075A000002800F08A80002B40F0A980627E94F8C9
:1075B000253004EB820204EB8303D5699F6A0DB387
:1075C0002E4616F8020BC0F3801009F057FC036832
:1075D000C5F802308388B3802B785B0606D5062178
:1075E000304608F027F9002800F095803E4616F84E
:1075F000020BC0F3801009F041FC0368C7F80230A9
:107600008388B380237D0121C3F302030BA88DF887
:107610002C3008F079FA024600287AD039462846FC
:107620000AF0B8FC4549464BA0FB0101C0184FF0D9
:10763000000541F107013EA3D3E90023C4E9025547
:107640002570FFF7ADFD278E606009F0EDFB069415
:10765000029562683B4B049200F109063A4802F237
:1076600047121A60A7FB00010993912303FB07113E
:10767000364B0793364B05934FF6FF734FF00208D6
:107680000AAF03932AA3D3E90023CDF828800897F3
:10769000FFF786FD032101903346424600952846B8
:1076A00009F008FB394609F031FE90BB94F83230FE
:1076B00043F0010384F8323021E003B3204609F09F
:1076C00037FE844229D10BAD022203211F4B0095C6
:1076D00000200B9209F066FB294609F017FE90B9CD
:1076E0001C4809F043FED0B9134809F02DFE84422E
:1076F00019D194F832306FF3000384F8323000204F
:107700000CB0BDE8F0810C4809F01EFE844200D0A8
:1077100000DE0C20F4E71220F2E700DED3E7783039
:10772000E2D000DEE0E700DEE3E700BFAFF3008079
:107730008D49FD1A070000008025002000CA9A3BF1
:107740008C49FD1A74250020002AE784F50E0300F9
:10775000092003009025002070B5037D8AB0C3F393
:1077600002030D46044601210DF1230016468DF853
:10777000233008F0C9F93146024628460AF00AFCCF
:107780001F49204AA0FB0131981841F107011AA3B3
:10779000D3E90023FFF704FD63689842054621D230
:1077A0001B1A00220192184A0293184BA21AA3FB3B
:1077B00002320221120900230A4409AE0991144938
:1077C0000591CDE903330321D2B206960093184602
:1077D00009F0D0FA314609F099FD38B9656000200A
:1077E0000AB070BDFBD9C21A0023DBE70C200AB037
:1077F00070BD00BFAFF300808D49FD1A0700000087
:1078000000CA9A3B8C49FD1A802500204FECC44EDB
:10781000F50E030000000000F0B583B0C468054613
:107820000BF0A2FD00200BF0C3FD002108460BF079
:10783000B1FD0022252108200BF0EEFD304B019315
:1078400001A80BF0D5FD2F4940F25B600BF07EFEE6
:107850002379C3F3020262F3C503237120460BF0C0
:10786000FDFB27682E6838460BF0C4F806446A68AA
:1078700006F1090101200BF089FF0CF015F82046F4
:107880000AF004FD811C3246C9B238460BF0B4F848
:1078900040B920460BF08AF810B9002003B0F0BDC3
:1078A00000DEFAE70546184A1849194840F2114324
:1078B00012F00BFC174B0721A5FB030301FB05315D
:1078C0000DA3D3E90023FFF76BFC134902461348CD
:1078D00012F0FBFB002585F31188BFF36F8F0323A4
:1078E000184602DF0E4821460BF012FD0BF0D8FDC2
:1078F0006FF08B00D2E700BF00CA9A3B0000000087
:10790000D6BE898E5555550054080400A0080400C1
:10791000A40804008D49FD1AF0080400C4080400FE
:10792000192D030070B5104C104D114EBFF35B8F35
:107930002368BFF35B8F8BB1296800290EDBB36826
:107940000B48DB689847031E08DA0A48026812F001
:10795000060F03D0084A022113F0C9F800214FF4A2
:10796000004017F0CDFCE1E798190020100200203C
:1079700060FA03004C060020660B0400F0B5174BBC
:10798000BFF35B8F1B68BFF35B8F89B00BB3BFF393
:107990005B8F134E3768BFF35B8FEFB9114D0FCD7F
:1079A00003AC0FC42B6823600F4900973B460322AA
:1079B00003A807F09BFD50B9BFF35B8F012356E886
:1079C000002F46E800310029F9D1BFF35B8F09B0E1
:1079D000F0BD6FF00A00FAE70020F8E7A0190020D8
:1079E0009C190020900004007001040010B50C4C9C
:1079F000BFF35B8F2368BFF35B8F0BB9002010BD13
:107A000007F08EFE0028FAD1BFF35B8F54E8003FE9
:107A100044E80002002AF9D1BFF35B8FEEE700BF14
:107A20009C1900200229F7B5064607D0394913F002
:107A3000DDFA6FF01505284603B0F0BD52685AB163
:107A400014784CB1552C20D00FD8472C1DD008D815
:107A5000302C17D0422C18D02F49304613F0C6FADC
:107A6000E7E7492C0ED0522CF5E7672C0CD003D851
:107A7000622CF1D1422408E0722C31D0752C01D057
:107A8000692CE9D1552400E04724244F244A3B784F
:107A9000D4710133DBB23B701372224BBFF35B8FA7
:107AA0001B68BFF35B8F53B300231A461E480321A4
:107AB00007F002FD031E15DB1C48036803F00703F3
:107AC000022B06D93B781A4A00930321234613F070
:107AD00018F818492246304613F06CFA0025AAE738
:107AE0005224D2E71148026812F0060F03D0124A5E
:107AF000022112F0FCFFFFF779FF051E03DBFFF701
:107B00003DFF051ED8DA0D492A46304613F06EFABD
:107B100091E700BF7F0B0400950B0400422C00206E
:107B20005D0500209C190020700104004C06002017
:107B3000F30B0400210C0400BD0B04000D0C040029
:107B4000022938B5054607D01649284613F04EFAE3
:107B50006FF01504204638BD546813492046FFF7DE
:107B600039FB78B9FFF70AFF041E05DA0F492246F0
:107B7000284613F03BFAEDE70D49284613F01AFAB0
:107B80000024E7E70B492046FFF724FB0028DBD160
:107B9000FFF72CFF041E02DA07492246E8E70749EF
:107BA000EBE700BF2B0C04005D1604003B0C040047
:107BB000510C0400ED100400660C04007B0C040062
:107BC0002DE9F043694E87B0402301213370737172
:107BD000674BB1701122F0217270F17032710FCBCE
:107BE00002AF87E80F00DFF88C81634C404617F046
:107BF0000DF8A8B9236813F0060F04D05F4A0221DC
:107C0000204612F06BFF6FF01205236813F0060F89
:107C10001ED05B4A58482B46022112F068FF17E03D
:107C2000D8F80890574DD9F808303946404698475B
:107C30000028034628601DDA226812F0060F04D0DF
:107C4000514A0221204612F052FF2D68002DDCDB44
:107C5000002006F0FFFF031E44DA2268550704D017
:107C60004A4A4548012112F042FF00201437BD4620
:107C7000BDE8F0830221D9F800304046984710F162
:107C8000860F054605D10021D9F8003040469847B7
:107C90000546002D0ADA236813F0060FB5D03C4ADA
:107CA00035482B46022112F022FFAEE7394BBFF3D5
:107CB0005B8F012253E8001F43E800200028F9D120
:107CC000BFF35B8F236803F00703022BC0D94FF487
:107CD0007A730093304A28484FF47A63032112F0F4
:107CE00010FFB5E72D4BBFF35B8F012553E8002F45
:107CF00043E800510029F9D1BFF35B8FFFF73EFE47
:107D0000031E04DA22685407AFD0254AA9E7236886
:107D100003F00703022BA8D9224A1748032112F0C7
:107D2000DDFE236803F00703022B9ED91E4A12488A
:107D3000032112F0D3FE236803F00703022B94D92A
:107D40006C468AB0F37902AA184919485161136246
:107D5000C1210523C2E9060142F8103F064800236D
:107D60004FF4235101F008FAA5467EE75D05002097
:107D7000A400040060FA03004C060020900C0400EC
:107D80001D0D040010020020AD0C0400360D04008F
:107D9000D10C040098190020EB0C0400A01900205D
:107DA000500D04006D0D0400890D0400B70D040092
:107DB00001F011402DE9F04F91B08407009302F0DB
:107DC00004030293C2F3C20303F10103DDF86880E8
:107DD000039205460E46059340F0BA81041D30B16A
:107DE000072909D86FF01B0011B0BDE8F08F01F032
:107DF00007063444C6F10806009B4FF00009591EDF
:107E00004FF0040A4FF0FF330193CDF810904F4626
:107E1000CB4653460DB1009A22600598002800F326
:107E2000E8809848009A824203D397488242C0F083
:107E3000E080039AA4EB050E92074FEA9E0000F142
:107E400003810F2F00F2B180002D00F0058107F1B2
:107E500040020DEB020C019A0CF8200C0CF8102CCF
:107E6000049801300490E7E07A285DD84B280ED8BA
:107E7000472859D829282DD8252852D054D8202829
:107E80007AD02338D0F1000B4BEB000B74E04C3868
:107E90002E2849D8DFE800F070484848484848484C
:107EA000484848484B484848484848484859484B3B
:107EB0004B595959704B6D487048184B18484882B7
:107EC0007F4B48484B487F0000204FF0000B4FF09D
:107ED000040A38E02A38C0B2012202FA00F010EA9F
:107EE0000E0F49D110F0625C2FD110EA020B43D083
:107EF0006046013C5444B4FBFAF40AFB04F4002D40
:107F000061D0A3EB050CA444B4453FF66BAF002849
:107F100068D1042B47D158F8043B23600434042370
:107F20002AE0019A013A01924FF0000B24E011F887
:107F3000010C6C2834D111F8023C00206C2B8346D4
:107F4000C5D14FF0080A5346D3E708F1070828F0D7
:107F500007080734F8E802AB24F0070435B10698A7
:107F60002044B0423FF63EAFC4E900AB08344FF0C6
:107F7000000B4FF0080A534611F8010F002878D083
:107F8000BBF1000F7FF470AF2528F5D1019B0133C1
:107F900001934FF0010B4FF0040AECE7584694E7C9
:107FA00000208346A5E7082B02D06FF015001BE7E1
:107FB00008F1070828F00708F8E80223C4E90023BD
:107FC00008340823D8E768B9042B02D108F1040863
:107FD000A4E7082BE9D108F1070828F0070808F101
:107FE0000808EDE7059A013A059258F8042B00922B
:107FF00010E7039A900720D5A4EB050E4FEA9E00E8
:108000004FF0010CBEF5007FCFD20F2FCDD8F5B1C8
:1080100007F140020DEB020EC0B2019A0EF8200CDF
:108020000EF8102CBCF1000F3FF41AAF60F07F0087
:108030000EF8200C09F101090137C5F108020434DA
:1080400006924FF6DA7E97E74FF0000CDAE7BCF1C4
:10805000000F01D00136EFE7029802360028EBD17D
:108060000098CDE90631FFF7C7F8DDE9063106448F
:10807000E2E7631BB3F5806F97D23DB9A6F1080420
:10808000E018B1E6D8F803002C360400029A286004
:108090009B082B709DF81030C2B1EB7085F80290F0
:1080A000B9F1000F05D008A80022C5F1010C9742D4
:1080B0000ED1C5F101030DF120084FF0000A019324
:1080C0000DF1300B574512D1601B8DE66B70E5E763
:1080D00010F8013B190608D50CEB040EB64503F069
:1080E0007F033FF67FAE04F8013B0132DFE7B9F1D1
:1080F000000F03D098F90020002A17DB029BD3B1B0
:108100001AF80B2004F8012B0022019B18191044C7
:10811000B0423FF667AE98F8000004F8010B0099F2
:108120000392204617F0DEFA039A14440AF1010A7A
:1081300008F10108C6E798F8002055F822300093AE
:10814000029B45F822300098FFF756F8421CDCE706
:108150006FF00D0048E600BF2DE9F04F97B000AF7B
:1081600090F802A0D7F880B03B62CBF3C00304467E
:10817000FA62BB61894641B9457800780AEB800014
:1081800020444D4517D8A0EB0409E378FB61BAF110
:10819000000F02D01BF0010F16D1FB6953BBFB6A25
:1081A0001BB13A6A4946204698474D4628465C37F7
:1081B000BD46BDE8F08F461C3046FFF71DF8013084
:1081C000304409F10109DCE7237862687A62FA6ACF
:1081D0009900796104EB8301002A40F004814D4647
:1081E0000E4601EB0A094FF000084E4550D101EB55
:1081F0000A0610E01BF0020FD1D023789A007A61B2
:1082000062687A62FA6A04EB8301002A7BD14D46E8
:1082100001EB0A0690461BF0050F0CBF0223012359
:10822000FB62FB6906EB430A0BF00203BB62564597
:10823000BCD016F8021B16F8013C54F823909B4B57
:10824000994502D39A4B99453AD3BB69002B44D048
:10825000786A11F0D4FE00283FD09648036813F0E6
:10826000060F13D0E9468AB06A46934B53617B6A86
:10827000C2E906314FF400731384904B42F8103F6B
:1082800000234FF4125100F077FFCD46023DCEE7B8
:1082900016F8013BF96254F82300FEF7ADFFD7F85A
:1082A0008430F96A01304BB1D7F8883098453EBF29
:1082B000D7F8843023F8180008F10108054494E742
:1082C000BB6923B1786A11F09AFE0028C5D11BF072
:1082D000010F05D1FB6AED1AA9E7BB6A002BA6D0F6
:1082E0004846FEF789FFD7F8843053B1D7F8883075
:1082F00098453FBFD7F88420431C22F8183008F176
:108300000108054493E7BAF1000F72D01BF0040690
:1083100072D0D046002607F1480052463B61B96250
:1083200017F0E0F9B96A3B6901EB0A02BA62FA692F
:10833000F9695200FA60BA6A02EB41023A610BF045
:108340000202BA603A69B96A8A4257D162787A629F
:108350001BF0020F32440CBF4FEA580100211BF002
:10836000010FD2B240F09F801BF0040F14BF4046B3
:108370000020BB616270A070E1703A6A7969FB6AA3
:1083800020469847051EFFF611AFBB6923707B6A34
:108390006370FB69E37041463A6AFB6A84F802A0A5
:1083A00007F148009847B0F10008C0F2BB807B6934
:1083B0003A6AA9EB0A01C91AFB68C91AD7E90A0384
:1083C00098470028C0F2B080A84408EB00054FF0A1
:1083D000000B07F1380AB34572D300213A6AFB6AF1
:1083E00008469847E2E656464FF0000807F1380085
:1083F00093E75646D04697E7B04695E7BA6A12F833
:10840000021BBA6212F8015C284A54F82500904217
:1084100002D3274A90421ED3BA6932B1786A7B6090
:1084200011F0EDFD7B6800288CD1BA6802BB08F121
:10843000280207F1300C08F10100944407F15802BA
:1084400052FA80F008F102080CF8101C5FFA88F864
:1084500000F8105C76E7BA693AB1786A7B6011F08F
:10846000CEFD7B6800287FF46DAF1BF0010F09D0B3
:1084700006F1280207F13000711C161806F8205C7E
:10848000CEB25FE71BF0040F3FF45CAF08F12802A7
:1084900007F1300008F1010102EB000808F8105C58
:1084A0005FFA81F84EE7002063E700BFD8F80300C9
:1084B0002C36040044060020520E04000400000183
:1084C0001BF80A3087F8373054F82390D7F88430F7
:1084D0002BB3D7F888309B4521D2D7F8843033F8B6
:1084E0001B803A6AFB6A012107F137009847002890
:1084F0001ADB0544B8F1000F06D14846FEF77CFEB2
:1085000000F101081FFA88F83A6AFB6A41464846BA
:108510009847002808DB05440BF1010B5BE74FF09F
:108520000008DEE7454641E605463FE630B504462D
:10853000EFF31185202383F31288BFF36F8F044B71
:108540000FCB84E80F0085F31188BFF36F8F30BD28
:108550007009002001281FB50C4605D0042822D040
:108560006FF0150004B010BD16F073FF174AC30B6F
:10857000C0F30E00A0FB0202C00B43EA414340EAF5
:108580004240C90BC4E90031A0606846FFF7CEFF46
:108590006946204611F058FD18B90D4B0FCB84E801
:1085A0000F000020DEE716F054FF084AC30BC0F3AB
:1085B0000E00A0FB0202C00B43EA414340EA4240E6
:1085C000C90BC4E90031A060EBE700BF00CA9A3BC9
:1085D0007000040001287FB50C4634D18A681B4B1B
:1085E0009A4230D816F035FFC20B42EA414252425D
:1085F0004FEAD13363EB4303CDE90023144AC0F3C0
:108600000E00A0FB0202C30B43EA42436D465B42ED
:108610002846029300F0C8F82146284611F014FDC0
:10862000EFF31186202383F31288BFF36F8F95E851
:108630000F00084C84E80F0086F31188BFF36F8F9A
:10864000002004B070BD6FF01500FAE7FFC99A3B37
:1086500000CA9A3B70090020014B1860704700BFA8
:108660001402002080B505460E461746984610F0C5
:10867000FFF9034617F026F9DFF81890044649F889
:108680000030424630463946A84754F8090003F006
:10869000D5FE00BF080000002DE9F84344690569D4
:1086A000C76840F26C73E1170135E41841F100012D
:1086B000022D8CBF00230123E41A61F1000100297F
:1086C000064607F1FF3751DA6FF4C77020184FF4F0
:1086D000C8724FF0000361F10001FEF711FD264B57
:1086E00003FB0044D6E90083B6684FEAE37C4FF011
:1086F0003C0E99466346C6FB0E93A9FB0EC60EFBC5
:108700000366A30840F26D1E022D0EFB04330246E1
:108710003B448CBF6FF00200092064270544B4FB82
:10872000F7F499201B1B154C45431CEB080C4FF02C
:10873000050005F10205B5FBF0F5A2FB04202B4472
:1087400004FB010146EBE87698180D4A41F100035D
:1087500080180C4A63F10003A0FB020102FB031125
:1087600010EB0C0041EB0601BDE8F8834FF4C87232
:1087700000232046B1E700BF70FEFFFFB13A0200C0
:108780009405F5FF8051010010B5FFF785FF024603
:1087900017F098F80B460349002444501046194638
:1087A00010BD00BF0C00000070B5204B82689A42DB
:1087B00016DDD0E90016012976F1000503F1010369
:1087C00092FBF3F34FEAE3741DDAC91844EB060495
:1087D000C0E90014164901FB03238360012070BD2A
:1087E000002AFBDAD0E900410029124EA3EB020374
:1087F000B3FBF6F310DA01F100459C4275F1000578
:108800000ADA0020EBE7CD439D426FF00045A5EB6F
:108810000605A541D9DAF4E7E41A61F1000106FB87
:108820000322C0E900418260D8E700BFFFC99A3B3C
:10883000003665C400CA9A3B2DE9F047058B044613
:108840002807904611D4022905F0070540F0CC8096
:10885000204611F0CCFE78B10138218B042811D8C4
:10886000DFE800F0C2106D85950001290CBF45F0CE
:10887000100545F02005258388F31188BFF36F8F1D
:10888000BDE8F08701F0070AAA4500F0A58000279F
:10889000B9463E46A368002B00F0BC8041F00801B9
:1088A000218388F31188BFF36F8FA168002900F03E
:1088B000BA800D68002900F0B680D1F804803346F4
:1088C00052462046C047002D76D02B6829461D46CB
:1088D000F0E701F007035A1F012A1BD8002221F0FC
:1088E0000701062B276889B2C4E9002209D13B465B
:1088F00003E0628B013262831B68002BF9D141F0E7
:1089000002012183204611F072FE00287AD041F046
:10891000200176E0042B0AD121F0070189B22183DE
:10892000204611F064FE10B141F020012183218B1B
:1089300001F0070AAA454FD00027B946AAE72369E4
:1089400021F0070141F00601062DD3F800902183A4
:108950002DD1B9F1000F3FD041F00801218388F3F8
:108960001188BFF36F8F3A492046C84729E021F0AC
:108970000701236941F0040189B2042DD3F8049062
:108980002183E6D000273E464FF0040A82E721F01B
:108990000701236941F0050189B2052DD3F808903C
:1089A0002183D6D000273E464FF0050A72E7002704
:1089B0003E464FF0060A6DE72B4687E7B9F1000FF8
:1089C000D1D1EFF31188202383F31288BFF36F8F87
:1089D000238B23F008032383258BEA062ED525F06D
:1089E0001003238305F007056669218B002EBFF66F
:1089F00070AF00232768C4E9003321F0070141F07C
:108A000001012183218B01F0070AAA454FF00009DB
:108A10007FF440AF002F9CD041F00801218388F300
:108A20001188BFF36F8F002FC8D03D683946334699
:108A30005246204611F007FE2F46F4E7AB067FF5BD
:108A40001BAF25F02003238305F0070500E700BFD7
:108A500073A603002DE9F047DFF858800446074667
:108A60004FF0010914B93846BDE8F08794FAA4F52F
:108A7000B5FA85F509FA05F32E0108EB05156FEA3D
:108A8000030A24EA03042B7B002BEBD058F80630B2
:108A90001B694BB94644042273682846196807EAE3
:108AA0000A0711F097FFDDE7284698470028D9D13B
:108AB000F0E700BFD8FE030030B51049104889B078
:108AC000002216F00EFD0F4D0F494FF40032002327
:108AD000CDE9062300240E23CDE90334CDE901447A
:108AE0000A4B00944FF4407228460FF067FC084987
:108AF00028460FF091FB204609B030BD158B0200CF
:108B0000500E00208009002080310020718E02006C
:108B1000060F040001480FF01DB900BF1C0700201C
:108B20002DE9F047804621480F4611F02BFF0646FD
:108B3000002833D000252846BDE8F087237B83B189
:108B40002368DB680BB120469847636883F806907A
:108B500023681B69D3B9636804221968204611F0A1
:108B600039FF013610345445E8D3B8F1000FE2D094
:108B7000002DDFD02846FFF76DFF0546002FF7D008
:108B800000214FF4A47016F0BBFBF1E72046984794
:108B90000028E0D009FA06F31D43E2E7044CDFF8B1
:108BA00014A005464FF00109DDE700BFB41900200D
:108BB000D8FE0300E8FE030008B5034608462BB1C3
:108BC000044A136000F07AFD002008BD6FF0150024
:108BD000FBE700BF1802002010B5044C237813B93E
:108BE00003480FF0B7F80123237010BD432C002079
:108BF0001C07002010B504460B4811F0C3FE5CB101
:108C0000BFF35B8F094B53E8001F013943E80012A3
:108C1000002AF8D1BFF35B8F054816F06EFC0548BB
:108C2000BDE810400FF096B8AC190020B019002034
:108C3000500E00201C0700200020064BBFF35B8F66
:108C4000014653E8000F43E80012002AF9D1BFF3B0
:108C50005B8F7047AC19002070B5FFF7EDFF084C33
:108C6000084E0546B44200D370BD63685B792BB1F2
:108C700023685B6813B12946204698471034F1E712
:108C8000D8FE0300E8FE030010B5044C044920465A
:108C900011F02BFB034B1C6010BD00BFE005002052
:108CA00088010400A41900200E4A0F48002310B5C3
:108CB00013700E4A13600E4A4FF400411360FFF721
:108CC0007BFFFFF7E1FF00F081F90A4B0A491846E4
:108CD0008B4200D310BD1A1A5C6812110132227146
:108CE0001033F5E7442C002081A90300AC190020C3
:108CF000B0190020D8FE0300E8FE03000146002260
:108D00000148002311F012BBE0050020014811F0DA
:108D1000ABBB00BFE0050020024B0146186811F014
:108D2000F7BB00BFA4190020014811F02CBC00BF04
:108D3000E00500202DE9F041364B1878002866D078
:108D4000FFF7E4FF044600285DD1334B334C1B682A
:108D5000002B19DD16F07DFB4FF47A72A0FB0203A5
:108D600002FB0131C30BD4E9002043EA41439B1AC3
:108D70004FEAD13140F2E93261EB0001934271F1E7
:108D8000000101D3FFF768FFD4E9003213F57A73CD
:108D900042F10002C4E90032BDE8F041FFF7C4BF70
:108DA0006B685B793BB121784B0717D52B6821465F
:108DB0001B682846984710354545F1D32046FFF7F4
:108DC000ABFFBFF35B8F164B53E8001F013943E83D
:108DD0000012002AF8D1BFF35B8FB6E72046268841
:108DE000C1F3C20700F0A8FAC6F382160246002EAD
:108DF000DCD00028DADB01233946284600F096F95A
:108E0000B042D8D3D2E7074DDFF81C80D4E7BDE8E5
:108E1000F08100BF432C0020AC190020480E002038
:108E2000B0190020D8FE0300E8FE030070B50D4D18
:108E3000297861B90120FFF773FE0B4C0B4EB44249
:108E400006D3FFF777FF0028FBD101232B7070BDFD
:108E500063685B791BB1236820469B689847103490
:108E6000EDE700BF442C0020D8FE0300E8FE03001D
:108E700000212DE9F0470846FFF752FE044658B39B
:108E800040F267684FF0000916F01CFD1B4B1C4AAE
:108E90001B58136033B11B4B1B68092B02DD1A48AA
:108EA0000EF058FF194FDFF860A0002544B12046AE
:108EB000FFF7D0FD044618B94FF0FF384FF0FF39E7
:108EC000FFF738FF064628B9B5B942464B4650462B
:108ED0000EF07AFF3546E9E74FF0FF384FF0FF39E3
:108EE000D2E72B689B691BB10022114628469847A0
:108EF0001035BD42F5D3E8E7054DFAE7080000005C
:108F0000A8190020B01900201C070020E8FE03006B
:108F1000D8FE030013B5184811F034FD174B1B7829
:108F200073B1EFF31184202383F31288BFF36F8FA3
:108F3000FFF700FF84F31188BFF36F8F02B010BDFD
:108F40000F4B1B68002BF9D050B900220023CDE94C
:108F500000230C484FF40042002310F0E3F8EDE743
:108F60000928EBD1074816F0C8FA074802B0BDE857
:108F700010400EF0EFBE00BFB0190020442C0020BE
:108F8000A8190020500E00201C07002010B5064B29
:108F90001B68044698472146A060044811F045FA32
:108FA000BDE81040FFF7B6BF18020020E005002022
:108FB000044A054B9B1AB1EBD30F34BF52F8310072
:108FC0000020704700FE0300D8FE03000B480C4B46
:108FD00030B51B1A0B4CDB0800210430994200D13C
:108FE00030BD10F83120256802F0070225F0070592
:108FF0002A4344F8042B0131F0E700BF00FE0300D0
:10900000D8FE030024060020F8B50B4F0B4DED1BD6
:109010000646ED080024AC4203D14FF0FF34204651
:10902000F8BD57F8340020B13146FEF7D3F80028D8
:10903000F5D00134EFE700BF00FE0300D8FE0300C7
:1090400000282DE9F047884615461F461DDADFF84F
:109050009890264E4FF0000AA6EB090636095446B2
:10906000B24509F1100902D12046BDE8F08759F850
:109070000C0C3B4600792A464146FFF7E1FF84424B
:1090800038BF04460AF1010AEAE7194B194AD21A15
:10909000B5EBD20F26D203EBC5031C79BC4228BF27
:1090A0003C46154EC0B200EB400056F82530072272
:1090B000824023EA020304F00702824013430021A6
:1090C000032223FA02F000F00700814202F10302BA
:1090D00038BF01461E2AF4D123F007030B4346F89C
:1090E0002530C1E70024DCE7D8FE0300E8FE0300DA
:1090F00000FE0300D8FE030024060020F8B5094D49
:10910000094BED1A06460F46ED080024AC4200D389
:10911000F8BD002122B23B463046013411F052FC2A
:10912000A4B2F3E7D8FE030000FE030070B141686B
:10913000097973B1002A17DBCBB20C4951F8220030
:1091400003EB4303D84000F0070070474FF0FF31B6
:10915000EFE707490748401AB2EBD00F3ABF01EBDF
:10916000C201087918467047042070472406002081
:1091700000FE0300D8FE03002DE9F04F8FB004AFCE
:10918000C1F34A28B8600D4691467B600C0DB8F1DA
:10919000000F67D0002607F114034FF0040B4FF0C7
:1091A0000A0AC7F80C80C7E907667E620193CDF80A
:1091B00008B0CDF800A007F11C03F9683246484614
:1091C000FEF7CAFFB0F5006F034620D32A480368B4
:1091D00013F0060F17D06C468AB0D9F8041004AB10
:1091E000264DC3E9055140F2FF71D9611A464FF48B
:1091F00000711984224B42F8103F4FF4125133464C
:10920000FFF7BAFFA5462C37BD46BDE8F08FC0F387
:109210000A0804F11700184420F0070080083B609A
:10922000FFF76CFD68F35325044690B13B68154A7F
:10923000C7E9083600F1100107F11403F961CDE91F
:1092400000A3CDF808B0F96807F11C034846FEF703
:1092500083FF68F353257B68B9682A46204611F0DE
:10926000EDFBD0E704F1170020F007008008FFF7BE
:1092700045FD0446EDE700BF540600201B0F040027
:10928000040000010FAA03002DE9F04F87B0DDE9CB
:109290001279DDE9105A0446039193469846DFB1EE
:1092A000CDF800903B46524610210020CDF8149096
:1092B000FEF780FDB0F5006F06460ED31C4803682C
:1092C00013F0060F30D01B4A40F2FF73022107B0A3
:1092D000BDE8F04F11F00BBC3E4605F117003044DD
:1092E00020F0070004F007048008FFF707FD0BF0EB
:1092F000070BE40044EA8B1444EA462444EA05548C
:10930000054640B13FB1CDF800903B46524631464C
:109310001030FEF74FFD039943462246284607B01A
:10932000BDE8F04F11F08ABB07B0BDE8F08F00BF79
:10933000540600205A0F0400406820B1034BC01AA5
:1093400040F38F0070474FF0FF3070472406002035
:109350000EB403B503AB014653F8042B0448019344
:1093600003F02CFB02B05DF804EB03B0704700BFC4
:1093700051AB0300CA0605D48B064CBF0249034912
:10938000FFF7E6BF704700BFB3130400920F04005D
:109390002DE9F04F89B09B46149B06939DF84CA095
:1093A000159B0593169B179E049304460D46904605
:1093B000BAF1000F00F09D8006F48073079311F05E
:1093C000FFFA06F00209024600283ED091492046E5
:1093D000FFF7BEFF0746B9F1000F08D016F0440FA3
:1093E00035D18D492A462046FFF7B2FF074406F0E3
:1093F000010353B1894B8A4953F82A20894B2046EF
:10940000002A08BF1A46FFF7A3FF06F48073002B5B
:1094100049D006F00803002B63D1B8F1000F66D0E5
:10942000814942462046FFF793FF0546069B3D448F
:10943000002B6DD1049B002B73D1F30700F1E48066
:1094400031462046FFF796FFD8E00746C3E7774B43
:1094500018680028CAD0764B4FF47A791B68B5FBA0
:10946000F3F54FF46163B5FBF0F100FB115509FB17
:1094700005F54FF03C0CB1FBF3F203FB1211B5FB09
:10948000F0FEB1FBFCF300FB1E550CFB131109FBB6
:1094900005F50091B5FBF0F56649CDE901E52046FB
:1094A000FFF756FFA2E706F00803EBB1624B6349F2
:1094B00053F82A202046FFF74BFF0546B8F1000F6E
:1094C00005D0594942462046FFF742FF0544BBF10B
:1094D000000FABD05A495A462046FFF739FF0544E2
:1094E000A4E74FF0000BE1E706F00805E6E7454684
:1094F0009CE7BBF1010F069B06D1002B64D1049BB6
:10950000002B7BD000250CE0002BF8D04D485CE010
:109510004D48069B4D49224610F040FD049B002B10
:1095200068D0DFF82C81DFF82C91049F3146102F92
:10953000204628BF1027FFF71DFF4FF0000B5D45A9
:1095400045DC059B49461A782046FFF701FF4FF09E
:10955000010B1BF0070F03D141462046FFF7F8FE31
:109560005F453BD9059B494613F80B202046FFF782
:10957000EFFE0BF1010BBBF1100FEAD1364920468B
:109580004FF0000BFFF7E4FE5A46059B9A5CA2F1F0
:1095900020015F2928BF2E2230492046FFF7D8FE40
:1095A0000BF1010BBBF1100F1DD01BF0070F03D106
:1095B00041462046FFF7CCFE5F455A46E5D8414676
:1095C0002046FFF7C5FEEBE71F485546A1E7414699
:1095D0002046FFF7BDFE0BF1010BB0E72049204606
:1095E000FFF7B6FEC5E7059B3B440593049BDB1BD9
:1095F00004939AD1BAF1000F7FF41FAF204609B04F
:10960000BDE8F04F11F097BA064A05492046FFF72A
:109610009FFE15E7A51D04009A0F04009C0104009D
:109620005C160400950F0400BF0F0400BC19002055
:10963000B8190020A30F0400B0010400C30F0400F8
:10964000C90F040087AB030051AB0300BDC9020082
:10965000D60F0400CE0F0400D80F0400DF0D040065
:10966000D40F040073B542F20F738B4228BF0B4630
:1096700005680F4A0446052168460FF0CDFE636871
:109680000C495B6806460B22284611F046FA6368CF
:109690003246694628465B6811F03FFA636806491E
:1096A0005B681B22284611F038FA02B070BD00BF7B
:1096B0007C0B0400F60F0400DA0F0400074A0021B7
:1096C0000123904206D8064A01B901231360054BD5
:1096D0001860704740085B000121F2E740420F002C
:1096E000B8190020BC190020014B0360002070470E
:1096F000C401040007B51B491B4813F030F870BBC8
:109700001A49194813F02BF848BB1949164813F0A9
:1097100026F820BB1749144813F021F8F8B9014680
:10972000154A114813F0E4FAC8B9024613490E4825
:10973000012313F0B8FB90B90123009301460223E3
:109740000948EF2212F02BFF48B9074812F050FFEA
:1097500028B9054803B05DF804EB12F079BF03B0F7
:109760005DF804FB900200201C0800207802002015
:1097700060020020480200201C0200202210040089
:1097800010B5044615F04EF903490246204611F083
:1097900011FC002010BD00BF8910040073B51346F2
:1097A00000220192044601AA58680A2101F0D0FD66
:1097B000019D95B920EAE0744FF40046294640F235
:1097C000E7304FF47A720023C4FB0601FDF7E8FC92
:1097D00015F096FD284602B070BD2A460249204683
:1097E00011F004FC019DF5E7B510040008B5034A2B
:1097F000034911F0DFFB002008BD00BFA2110400E7
:10980000A8110400F7B517460023054601AA0A214E
:10981000B868019301F09CFD1749C6B2284611F0C3
:10982000D7FB019C44B122461449284611F0DEFBC7
:10983000019C204603B0F0BD042E09D910493246E0
:10984000284611F0D3FB284611F005FC0124F0E76F
:109850007868FFF7D9FB021E07DA7A6809492846BB
:1098600011F0C4FB6FF01504E3E7334612B2214652
:10987000204611F0A7F8DCE7D311040039120400E8
:10988000601204007712040007B5002300906946B7
:1098900004488DF804300FF04DFA9DF8040003B031
:1098A0005DF804FB0DAC030010B504460CF014FE8B
:1098B00007490246204611F07DFB2046054911F07C
:1098C00079FB054821460FF04FFA002010BD00BF7C
:1098D000D6120400F5120400DD98020070B58EB0B7
:1098E00004460D46D0F8AC6015F044FC034615F074
:1098F000E9FF214A21491058214A002B18BF1A4676
:109900000092204A2346844218BF0A4628461E4930
:1099100011F050FBD4E90A23CDE90023284694F93D
:109920000E30227B194911F045FB06A92022204662
:109930000EF082FC636F16490246284611F03AFB8E
:1099400005A9204615F024FC024628B111492846F5
:1099500011F030FB0EB070BD059B6422F11A4A4332
:109960000091B2FBF6F20C49CDE90162284632467D
:1099700011F020FBEEE700BF08000000D60F040046
:10998000FF12040075270400021304000E130400E4
:109990003A130400511304007E130400F0B50025AF
:1099A00091B00446294608AF1C2209A815F0C2FE52
:1099B000134E1A222021384615F0BCFE21461148CC
:1099C0000FF0D2F907AA4FF40061304615F0D4FB2E
:1099D000079A0097C2F5006164234B43DB0A0593A5
:1099E0004FF40063CDE90313CDE901322046064967
:1099F0002B46A6F1400211F0DDFA284611B0F0BD69
:109A0000804E00200D9A0200CF13040070B504466A
:109A1000D0F8AC6088B00D4607A915F0B9FB024636
:109A200028B10F49284611F0C5FA08B070BD20468C
:109A300015F0A0FB079B0096F11ACDE90131094B07
:109A400064224A43002818BF0346B2FBF6F20649D7
:109A5000CDE903622846224611F0ACFAE5E700BFE3
:109A600051130400FF1204001814040038B5134603
:109A700005461022586800210FF06EFD0446FFF7DE
:109A800003FF38B90E492246284611F0AFFA6FF0AD
:109A9000150038BD15F016FF0A4B1B589C4204D127
:109AA0000949284611F0A2FAF1E720460EF09CFD84
:109AB00028460649224611F07DFA0020E9E700BF5A
:109AC0007C1404000800000097140400BF14040074
:109AD00038B5134605461022586800210FF03CFDAA
:109AE0000446FFF7D1FE38B90E492246284611F048
:109AF0007DFA6FF0150038BD15F0E4FE0A4B1B58D7
:109B00009C4204D10949284611F070FAF1E7204639
:109B10000EF088FE28460649224611F04BFA002036
:109B2000E9E700BF7C14040008000000F6140400FC
:109B30001C15040038B5134605461022586800214C
:109B40000FF00AFD0446FFF79FFE38B90E49224682
:109B5000284611F04BFA6FF0150038BD15F0B2FE33
:109B60000A4B1B589C4204D10949284611F03EFA81
:109B7000F1E7204602F062FC28460649224611F031
:109B800019FA0020E9E700BF7C1404000800000077
:109B9000571504007C15040010B50C46002111F087
:109BA000E9FC00B10068034A20600023C4E90123F6
:109BB000E36010BD9716040010B50C46002111F0AB
:109BC000DDFC00B10068034A20600023C4E90123E2
:109BD000E36010BD9716040070B506465068154640
:109BE00011F0D0FC044640B96A681049304611F0C3
:109BF000FDF96FF01204204670BD15F007F830B182
:109C00006A680B49304611F0C7F90024F3E7204693
:109C100014F0F3FF044630B103466A680549304644
:109C200011F0E4F9E7E76A680349EBE7B4150400CB
:109C3000C9150400EB150400181604002DE9F04FB7
:109C40008FB0044601A80F4690460DF083FC019B9F
:109C5000242202FB003B08212B4A204611F08FF9F9
:109C6000019D5D4503D300200FB0BDE8F08F2E6845
:109C70000EB1337833B9254A2B46302102A80FF0B4
:109C8000CBFB02AE022F07D1D8F80410304615F0F6
:109C9000A4FD08B92435E4E71D4A334608212046CF
:109CA00011F06DF9284614F0B1FF1A4A1A4B082139
:109CB000002808BF1346194A204611F060F92B6AA4
:109CC000002BE7D01E68002EE4D03368002BE1D0D3
:109CD000134A0821204611F052F9B2464FF000090C
:109CE0003368104A4B4505D80F4A0821204611F029
:109CF00046F9CFE75AF8043F0821204611F03FF912
:109D000009F10109ECE700BF4B16040055160400E9
:109D10005A160400421604003C160400C215040042
:109D20005F1604005B160400B31304001FB50C6833
:109D3000D1E9043203944C6802948C680194C96898
:109D400000910133034902F26C7211F033F904B04F
:109D500010BD00BFE1160400F7B513783A2B064694
:109D60000F46154614D1541C23783A2B28D10134C0
:109D70000A2201A920460FF079FB019A3860A2421D
:109D8000034617D01078A8B93C2B15D915490EE019
:109D90000A2201A928460FF069FB019CB860AC4279
:109DA00008D023783A2B05D1172807D90E49304619
:109DB00011F01CF96FF0150003B0F0BD0134D3E7CA
:109DC0000A2201A920460FF051FB019B7860A342B3
:109DD000F0D01A783A2AEDD13B2801D90349E6E7B9
:109DE0005C1CC5E7201704000217040010170400CC
:109DF0002DE9F04190B00D46044602A90120174616
:109E0000FEF7A8FB07A902A80FF058FA032D55D1B9
:109E10007D680A2201A928460FF028FB019EB54261
:109E2000804615D032782D2A12D101360A2201A996
:109E300030460FF01BFB019B9E4209D01A782D2A59
:109E400006D1451E0B2D0CD92849204611F0CEF81D
:109E5000204611F000F96FF01505284610B0BDE856
:109E6000F0815E1C0A2201A930460FF0FFFA019B27
:109E70009E42EDD01B78002BEAD1431E1E2B01D948
:109E80001B49E2E7A8F26C73CDE90B53BA680A905C
:109E900007A92046FFF760FF0028D9D107A8FEF7E1
:109EA00073FCB1F1FF3F08BFB0F1FF3FCDE9020104
:109EB00008D11049204611F099F8CCE7022DC7D1FE
:109EC0007A68E5E700230493012002A9FEF782FBEC
:109ED000054628B102460849204611F087F8BAE73E
:109EE00007A92046FFF722FFB7E700BF301704009D
:109EF0003F1704004C170400751704002DE9F341C7
:109F00001446884607461022606800210FF024FBA3
:109F1000B8F1020F064607D8284A20230821384600
:109F200011F02DF8336816E00A220021A0680FF026
:109F300013FBC5B2214A2B460821384611F01FF801
:109F4000B8F1030F1ED1102D0FD0202DEAD0082D0F
:109F50000ED13378DBB20022CDE900320821184A55
:109F6000384611F00CF8002009E033889BB2F2E784
:109F70003846144A082111F002F86FF0150002B0BB
:109F8000BDE8F081E068102200210FF04BFB0E4A83
:109F9000CDE9000104460821384610F0F0FF102DED
:109FA00006D0202D07D0082DE2D1E4B23470DAE7D4
:109FB000A4B23480D7E73460D5E700BFBA170400F5
:109FC000E5170400CF170400F81704002DE9F04F3F
:109FD00087B000230193524BDFF848A1914601223C
:109FE000074688461A6002F02BFD4FF0FF35202609
:109FF0002C4649465246404602F046FD411C06D1D9
:10A000006A1C41D14849384610F0F0FF17E0732828
:10A010001AD0772828D0612811D1DFF810B101AA11
:10A02000DBF80000102101F093F9019B0546002B9D
:10A03000DFD0DBF800203E49384610F0D7FF6FF044
:10A04000150007B0BDE8F08FDFF8E0B001AADBF83B
:10A050000000002101F07CF9019B0446002BC8D0D0
:10A06000DBF800203349E7E7DFF8C0B001AADBF8EE
:10A070000000002101F06CF9019B0646002BB8D0CE
:10A08000DBF800202C49D7E7631C01D12B49BAE744
:10A090005FFA86F8C6F3C406002C3FD002AB29460F
:10A0A0001A46A6EB050C0CE0B8F1100F1DD0B8F164
:10A0B000200F20D0B8F1080F2AD108781870314449
:10A0C0003344A64203D80CEB01001028ECD9102C25
:10A0D000A14628BF4FF0100929464B46384601F0EB
:10A0E0001FF81035A4EB0904D6E7088880B2187071
:10A0F000000A5870E3E7086818704FEA102E83F8DA
:10A1000001E04FEA104E000E83F802E0D870D6E767
:10A110000B4A0821384610F032FF90E7204690E7BE
:10A12000F0020020481804004F180400F81C00201A
:10A130000E18040021180400341804006C180400E0
:10A14000CF17040070B50F4E044633780D4671B139
:10A1500023B1BDE870400C4910F048BF01233370B3
:10A160000A49204610F026FF0123337004E083F0F3
:10A1700001033370002BF3D129462046BDE870401F
:10A1800010F083BF452C002086180400C11804007D
:10A190002DE9F041DFF8F0803C4E05460C468F1863
:10A1A000A74201D1BDE8F08198F8002014F8013BE6
:10A1B000182A22D1112B20D1354C3649226800268D
:10A1C000284688F8006010F0F5FE28463146FFF773
:10A1D000B9FF314B18780028E4D1304A2368116860
:10A1E000042B2EDC08B12360116013F003012FD182
:10A1F000126813681BBA1360D4E7A3F13002092A6E
:10A2000088F8003004D923F02002413A052A04D806
:10A210003168234A5354013131603368022BBFD176
:10A2200010221F4800210FF097F91E4A136803F807
:10A23000010B1360164A1368013313600023336067
:10A24000AEE7086800BA41F8040B043B0120C7E7F9
:10A250005B4203F0030358BF5942022904D112683C
:10A2600013885BBA9BB2C6E703299BD110680268CA
:10A270001104C2F3074301F47F010B4302F47F4250
:10A28000134303608EE700BF462C0020C019002056
:10A29000C4190020EB180400472C0020C819002026
:10A2A000482C0020CC1900202DE9F84F0C462B49F2
:10A2B000DFF8AC80DFF8AC90DFF8ACB000230B60C7
:10A2C0002A4988F8003006460B601546012C2F46B7
:10A2D00055F804AF1ED902224946504615F04FFAF0
:10A2E00080B99AF80220003A18BF0122924420490E
:10A2F0000222504615F043FA30B9012388F80030A5
:10A30000013CE3E70022F1E749465046FCF762FFD3
:10A31000A8B904370022114678680FF01DF9154BD3
:10A3200000221146186078680FF016F9124B134995
:10A3300018603046FFF706FF0020BDE8F88F9AF856
:10A3400000202D2AE6D19AF80120002AE2D05246B8
:10A350005946304610F02EFED2E700BFC01900204B
:10A36000472C0020051904000B190400C419002013
:10A3700008190400CC190020C819002091A102007E
:10A3800007B50A4814F042FC60B1094A074912684F
:10A39000084804230093012300F028FF002003B0A5
:10A3A0005DF804FB6FF01200F9E700BFF4F9030059
:10A3B000E0020400E8FE030010B54468C4E900129E
:10A3C000A36042681346402153F8404B53625163E7
:10A3D000002302F13801C2E90413C2E90A33C2E9D9
:10A3E0000633082113631162C2F8B830A36823B1A1
:10A3F0001B6C13B1044920469847A3681B6A0BB134
:10A4000020469847002010BD0DA402002DE9F34717
:10A4100005460C468368DB6B03B19847AB68DB6A83
:10A4200073BB4FF0000904F1240704F12808218EC2
:10A43000238D626B5B1A9BB2D31A934228BF1346DB
:10A44000414601AA384610F0F7F98246002844D068
:10A45000AB6801991B69002B33D002462846984708
:10A46000064688B332464146384610F01BFA564538
:10A470004FF00109DBD0D4E901310020984703E017
:10A48000284698470028CCD1AB68DB69002B37D130
:10A49000628BE38A9B1A226A9BB2934204F11007F3
:10A4A00004F11A0828BF1346414601AA384610F0A5
:10A4B000C3F9064658BB284610F0D0FBC4F8B86074
:10A4C00031E06FF05706CDE702464146384610F0BE
:10A4D000E9F9B9F1000FD7D0CDE71748036813F0B9
:10A4E000060F03D0154A022110F0F8FAAB681B6979
:10A4F000002BEED001220DF1030128469847E8E732
:10A50000284698470028C3D102B0BDE8F087AB6861
:10A510000199DB6863B102462846984702464146E6
:10A52000384610F0BFF9D4E9013101209847EBE734
:10A530006FF05702F3E700BF78060020721A04009C
:10A5400010B581680446183101F094F9A168034AF6
:10A5500020461831BDE8104001F024B9B41A0400B7
:10A5600038B58368D3F87832DB0704461DD4C06958
:10A5700011F05DFB606803685B689847054620B989
:10A58000E06811F04BFDA3681D75A3685B6C13B107
:10A59000294620469847A36815F094F90022C3F88D
:10A5A000A022034B185801F049FF6FF00F05ECE7AC
:10A5B00008000000014910F0D7BB00BFB31304002E
:10A5C0002DE9F04FA7B004465422002111A815F040
:10A5D000B1F80023CDE90533A36820465633029332
:10A5E00011F0ECF8204611F030F810B96069FFF76F
:10A5F000E1FFA06814220021183015F09BF82046D6
:10A6000010F07DFFA168E068B1F8502056310026B7
:10A6100011F0C9FC204611F02AFD4FF0FF38B24678
:10A62000039611AFB3463546B146DDE90532012A3E
:10A630006CD0132B6DD8B8F1000F2BD1BBF1000FEC
:10A640000AD0204611F034FDA2681423563211A915
:10A650000DEB030010F0D2FDB9F1000F0CD099F80A
:10A660001130FE2B08D1059B26AA02EB830252F87B
:10A67000542C0AB101330593A068059D436A002B51
:10A6800040F0B580C6B1C3699E422BD00D9600F153
:10A69000180522E0029A0223394606A810F0AEFD02
:10A6A00006997A680292034631B101290AD148B16C
:10A6B000694A204611F031F96FF00705284627B0A6
:10A6C000BDE8F08F059B002B32D0386801F004F90B
:10A6D00098B166B1A5680D9618350CAE0FCE0FC5B2
:10A6E00033682B602046FFF72BFF0125E6E75B4A26
:10A6F0000121204611F011F9DEE7059BC3B13A684C
:10A700002946204601F08AFA022809D1059B132B1D
:10A7100094D9069B022B91D1514B524A0121C8E793
:10A72000032805D0059B013305934FF0010B7CE70F
:10A73000039B2BB9396807AA484610F056FE054618
:10A74000043708F1FF38A5B3EB68BBF1000F08D060
:10A75000FBB1204611F032F8204610F08DFF424A3E
:10A76000C6E7B3B1A368DDF814A0AE4603F1180C38
:10A77000BEE80F00ACE80F00DEF80030CCF8003087
:10A78000AB6833B96B7CFE2B04BF95F8108008F1E1
:10A79000FF38D5F804C0BCF1000F08D0AE46BEE8C3
:10A7A0000F000CAE0FC6DEF8003033606646A946D7
:10A7B00003E0059B63B101230393069BB8F1000FEF
:10A7C00002D1022B7FF431AF059B013305932CE7B7
:10A7D000A368DB6A13B1DB68002BECD1234B009339
:10A7E000234A119B0121204611F097F8E3E790F8E6
:10A7F0002830A5EB0A05BBB190F829104FF6FF727F
:10A80000FF2918BF0A469D4202D313449D420BD92B
:10A810008369184A0121204611F07FF82046FFF78E
:10A820008FFE6FF0150549E7012110F0E1FAA068ED
:10A8300010F0D2FAA36811AA29465B6A02EB8A02D9
:10A84000204698470546A06810F0CAFAA068002183
:10A8500010F0CEFA32E700BFC21A0400D61A040084
:10A86000371B040092120400F41A0400231B040096
:10A87000201E04005B1B0400F7B504468068D0F876
:10A8800078325A070D4605D5002110F0BCFAE06871
:10A8900011F05BFBE368DB6873B9002D3BD0A66861
:10A8A00006F15607384610F06CFA002835D03946C4
:10A8B00006F5AB70FCF798FCA268E0680DF10603A2
:10A8C0005632294611F044FB58B9A06800F5AB7127
:10A8D0005630FCF789FCA068563010F052FAADF8FB
:10A8E0000600204610F063FFA368D3F874329B067D
:10A8F00003D50B49606910F037FA204600F08EFD51
:10A90000A268BDF80630A2F85230A2682046A2F82C
:10A91000503010F0B1FE03B0F0BD86F85601CBE721
:10A92000FD00040010B5836802221A7583689B6CD1
:10A930000446BBB910F0EFF98368D3F87832DB0432
:10A940000BD50321084B094A10F0E7FFA0686FF40C
:10A95000805100F51E7010F0F8F92046BDE8104057
:10A9600000F0E2BE10BD00BF761B04005C160400C0
:10A970002DE9F04F04468068B1B0012100F51E704A
:10A9800010F0D4F9A3681B7D022B26D10023099374
:10A99000A36860689E6C03681D6909AB3EB3102212
:10A9A0001BA9A847099BC3B10121A06810F020FA98
:10A9B000A06810F011FA099A1BA92046B047A068B8
:10A9C00010F00EFAA068002110F012FAA3689B6C38
:10A9D000002BDDD12046FFF7A5FFA0686FF0010135
:10A9E00000F51E7031B0BDE8F04F10F0AEB9012295
:10A9F0000DF12301A847099B002BEED09DF92320E0
:10AA00009DF82330A068002AC2DB427D032A00F2B1
:10AA10000483DFE812F0040085029C0202030D2B80
:10AA200067D00A2B43D0B0F87822092B6FF3CA0203
:10AA3000A0F8782272D029D8002B00F00381082BCF
:10AA4000A06800F0E9810246D2F87412890740F14B
:10AA5000F980013B162B00F2F580DFE813F0C70206
:10AA6000FA01FE01F601C1021002F300F300F30047
:10AA7000F30014021802F3002D02F3003202F30077
:10AA8000F300F30034024402F30059021B2BA068C8
:10AA900041D07F2B00F0CC81A3F120015E2902463A
:10AAA000D2D8012110F0AFF99DF82310B8E0D0F80A
:10AAB0007822C2F3C7022AB1D0F87822C2F3C702C3
:10AAC0000A2AC0D1B0F8782263F3CA02A0F878222B
:10AAD000A568B5F85010C1B9284610F094F9E0689F
:10AAE00011F033FA6069FFF765FD2046FFF71AFFA2
:10AAF0004EE7D0F87822C2F3C702002AE2D0D0F89D
:10AB00007822C2F3C7020D2ADBE72046FFF758FD83
:10AB1000C5F8A402E9E70123437593E0A068D0F8E3
:10AB200074329B0740F18E80012110F06CF9A0680F
:10AB3000B0F85030FF2B00F08580B0F8522000F1C3
:10AB4000560100F5AB7014F0CDFDA368B3F85220A8
:10AB50001344002583F85651A2681BA9142302F55B
:10AB6000AB720BA810F04AFB0B9914296AD830ABD2
:10AB700003EB810343F8545CA368B3F85220002A26
:10AB800052D0134493F85530202B02D0093B042BAC
:10AB90004AD800294BD100250A950A9B30AA02EB1E
:10ABA0008303002653F854AC504610F0EAF8B3463D
:10ABB0008146B046374616AA3946284600F08EFB35
:10ABC0000346002842D1012E68D10A9B30AA02EB2D
:10ABD000830353F8540C10F0D4F8A26806461832D8
:10ABE0004146284600F07AFB0568284610F0C9F86F
:10ABF000864205D0821B92B2A919204610F0D4FEDD
:10AC0000A068B0F85230034493F85630202B34D06B
:10AC1000093B042B31D9D0F87432DF0732D420211C
:10AC2000204600F049FD0DE00129B4D9013900208A
:10AC30000CAB009301900AAB1BAA10F001FC054677
:10AC40000028AAD1606910F026FAA1E61B680393D8
:10AC50004A465146184614F092FD60B9039B1846C7
:10AC6000FCF7CAFA584538BF58461FFA80FB002E39
:10AC700008BFB846013601379DE70121204610F094
:10AC80002FFDDFE7002110F0C8F82021204600F05A
:10AC900013FDA068012110F0C0F8D3E70490D1D9CA
:10ACA0000A9A30AB03EB8202C14652F8543C03933C
:10ACB000184610F066F8A268049B0590A2F8403090
:10ACC0000496A26849461832284600F007FB039B09
:10ACD000D0F800A009F101094BB1BAF1000F06D07C
:10ACE000059A1946504614F04AFD0028E9D1A1689A
:10ACF000BAF1000F4ED1A1F840A0049B013B049390
:10AD0000DFD16069FFF756FC204600F00DFD0A9B7D
:10AD100030AA02EB830308F1010A53F8540C10F037
:10AD200030F8414611AA8146284600F0D7FA074676
:10AD3000A0683968FF2200F5AB7014F032FD3B6863
:10AD400003934FF6FF77B84616AA514628460AF1F4
:10AD5000010B00F0C3FA002852D0A168036801F289
:10AD60005511002211F801EF985C704503D110B124
:10AD700001324245F6D1B9F1000F01D04A4507DB57
:10AD8000BA4206F1FF36A8BF3A46012E97B237D035
:10AD9000DA46D9E7A24806910FF0F3FF069907912A
:10ADA0004A8F00EB0B07BFB2121A504692FBF7F224
:10ADB00092B206920FF0E5FF0799069A3F1AB1F892
:10ADC000400000F1010CA1F840C0B0FBF2F102FB21
:10ADD000110080B2BFB260B9914B924ACDF800A089
:10ADE0000621204610F099FD3946204600F000FB70
:10ADF00083E78D4A53460621204610F08EFDF3E787
:10AE0000002F3FF41FAF0399A7EB090292B2494408
:10AE1000204610F0C9FD15E7D0F874329E077FF583
:10AE200011AF01210FF0EFFF204610F0DEFD09E722
:10AE3000D0F874329D077FF505AF01210FF0E3FFD5
:10AE4000A368D3F874321807EED4204610F0AEFD94
:10AE5000F8E6204610F0BBFCF4E6204610F0AEFC0D
:10AE6000204610F0F2FB10B96069FFF7A3FBA06861
:10AE700001210FF0C8FF2046FFF754FDE2E620460F
:10AE800010F0AEFCDEE6204610F0B5FCDAE6D2F8B3
:10AE900074329F0603D5654960690FF065FFA368AA
:10AEA000D3F874329E0603D5614960690FF05CFFE8
:10AEB000204600F039FCC5E600212046FFF7DCFC07
:10AEC000C0E60121F9E7E06983681B79012B02D113
:10AED00010F0ADFEB6E6022B7FF4B4AED26C214684
:10AEE00010F08EFEAEE6204610F061FC20460FF01A
:10AEF00012FF0121A0680FF086FFA368D3F8743217
:10AF00009D067FF59FAE4B4960690FF02DFF99E6D6
:10AF1000204600F0FDFAA06801210FF074FF91E6D1
:10AF20005B2B01D10223F7E5D0F87422900706D5F8
:10AF3000622B08D14FF0FF31204610F0FAFBA368D6
:10AF400000225A757EE6662BF9D10121F4E7002232
:10AF50004275A268D2F8741289077FF519AD313BAA
:10AF60001B2B3FF66FAE01A151F823F0E9AF0200B1
:10AF7000F5AF020009B00200DDAF020045AC0200EF
:10AF800045AC020045AC020045AC020045AC0200F5
:10AF900045AC020045AC020045AC020045AC0200E5
:10AFA00045AC020045AC020045AC0200C3AE020055
:10AFB000B9AE02007FAE020053AE020045AC020003
:10AFC000E1AF020045AC0200EDAF020045AC02006B
:10AFD00045AC020045AC0200F9AF020003235375F3
:10AFE000204610F0EBFB2DE603235375204610F0AE
:10AFF000DEFB27E603235375A068D0F8741201F036
:10B00000010181F0010146E603235375A368D3F8DB
:10B0100074329B077FF516AE17E700237CE500BF6F
:10B02000D50F0400BA1B04005C16040002010400E2
:10B0300007010400FD0004002DE9F3410446806887
:10B04000154600F51E7000293AD04FF480410FF0EC
:10B050006DFEA368DD646068036800219B68984703
:10B0600098BB20460FF017FF78BB194DDFF86480BE
:10B070004FF0FF364FF0FF37A06800F51F70002239
:10B080000721CDE9006714F023FBA0680FF0A8FEAC
:10B090002A46042120460FF0E2FE424601212046C6
:10B0A0000FF0DDFE20460C4A02210FF0D8FE60684A
:10B0B00003685B6903B19847A0680FF08DFEDBE77A
:10B0C0006FF480410FF041FEC3E702B0BDE8F081AC
:10B0D00061A5020071A902008FAD030010B50B49F4
:10B0E00004460FF067FF204609490FF063FF204632
:10B0F00008490FF05FFF204607490FF05BFF20462D
:10B10000064A002100F04EFB002010BDC01B0400C9
:10B11000FE1B04005D1C0400B11C04004C1D040057
:10B12000F8B517461E460A46294904460FF042FF65
:10B130003EB33A78274920460FF03CFF01256A07C5
:10B1400003D1254920460FF035FFAE421ED97A5D66
:10B15000204920460FF02EFF0135102DEFD11F4959
:10B1600020460FF027FFB6B91B4920460FF022FFFB
:10B170000125AE422B4610D8174920460FF01AFF82
:10B1800015E0174920460FF015FF01251449204608
:10B190000FF010FFE0E700252B46FA5C1149A2F101
:10B1A00020035F2B28BF2E2220460FF003FF01351E
:10B1B000102D06D06B07DCD1074920460FF0FAFEB0
:10B1C000D7E720460849BDE8F8400FF0F3BE00BFBE
:10B1D000621D0400CE0F0400D60F0400D80F040037
:10B1E000D40F0400DF0D0400691D04002DE9F041B7
:10B1F00004468068D0F8A06288B0884615461F468D
:10B20000002E4FD14FF42A72314614F093FAA06801
:10B2100000F51F7014F050FAA06800F522700122AA
:10B22000114613F0CEFEA3691E60A068022100F54E
:10B230001E700FF07BFDA36850225A87A368182266
:10B240001A87216820460FF0DFFEA368174A66F3CD
:10B250008205C3F874526068036841461D6823463E
:10B26000A8470546D0B9A36801221A75D4E90A0196
:10B2700000220023CDE906230E2303930E9B0495A1
:10B28000CDE9017300940A4B4FF400620DF096F87B
:10B29000A368C3F8A002616A0CF0BEFF284608B09C
:10B2A000BDE8F0816FF07705F8E700BF39AE030025
:10B2B00039B0020010B5044613460A460146064856
:10B2C00001F07CFB23691B7923B12046BDE81040C7
:10B2D0000FF0E1BE10BD00BFAFB0030038B50B46A4
:10B2E000154648B91449154A521AB3EB920F05D2C4
:10B2F00051F82350284638BD84680CB90025F9E779
:10B300000F4A94420AD30F4A944207D21846226841
:10B31000294690472B68002BECD1EFE70A4A94426C
:10B3200002D30A4A944205D3246814225343E518F1
:10B33000E358F0E70133F8E718FF03004CFF030080
:10B34000640004006C0004004CFF0300640004006F
:10B35000F7B503782D2B0446164605D16FF015037B
:10B360003360002003B0F0BD14F0ACFA0B4F0023A3
:10B370000546C3510A46204601A90EF0EDF8EB59E7
:10B38000222B02D16FF02103EAE7002BE6D1019BCB
:10B39000A342E3D01B78002BE4D0DFE70C000000D1
:10B3A0008368D3F874329B0603D50249406910F0D4
:10B3B0002DB970470D010400014910F027B900BFF5
:10B3C000B31304000A1E0DDC0ED042238168D1F8AD
:10B3D0007412890608D5002A04494069B8BF524250
:10B3E00010F014B94123F1E7704700BF851D040038
:10B3F0000A1E0DDC0ED044238168D1F87412890630
:10B4000008D5002A04494069B8BF524210F0FEB87E
:10B410004323F1E7704700BF851D04002DE9F04785
:10B420008568DFF86890044605F15600FBF7E4FEF6
:10B43000002395F83C7086B29846A268558FED1BA4
:10B44000B54209DB002E1FDD563360691049BDE8A7
:10B45000F0471A4410F0DAB81D442A44563392F8E3
:10B4600056A082F85680A26860691A44494610F0D6
:10B47000CDF8A3682B4483F856A0A3685B8FDB1B31
:10B48000F61A00272B46D8E7BDE8F0879212040091
:10B490005C16040008290A4617D8836893F83E1002
:10B4A000914212D083F83E208368082AD3F8743280
:10B4B00005D0990609D50549406910F0A7B89B0643
:10B4C00003D50349406910F0A1B870478C1D0400F2
:10B4D0001201040038B50D4609780446FFF7DAFF7B
:10B4E0006A78072A11D8A36893F83F1091420CD0CC
:10B4F00083F83F20A368D3F874329B0605D56069B2
:10B500000249BDE8384010F081B838BD951D0400EF
:10B51000F8B58368B3F850200446002A55D0B3F834
:10B520005210002951D0553103F156050B441846ED
:10B53000A84206D3014611F80169202E3CD0A8424A
:10B540003CD286B29DB2AB1B9BB2591C471CD21A8F
:10B550000144384614F0D4F8A268B2F85030711B98
:10B5600013FA81F3A2F85030A368B3F850201344C3
:10B57000002283F8562009B2204610F0B1F8A368E3
:10B58000D3F874329A0603D51049606910F03EF87A
:10B590003B460F4A0821204610F0BFF92046FFF72E
:10B5A000FFFEA368D3F874329B060ED56069094983
:10B5B000BDE8F84010F02AB80846B9E7014611F88E
:10B5C0000169202EBDD00846B9E7F8BD1701040077
:10B5D0005C1604001B0104002DE9F84F04460F46D9
:10B5E00090460AB1FFF7DCFEA668D6F87432B6F8CA
:10B5F00052505B0724D505F156003044FBF7FCFDA3
:10B600002A4E0546B5B9A368B3F85020A3F85220D6
:10B61000A06810F008F830B1B8F1000F00D017B1F1
:10B620006069FFF7C9FE7942204609B2BDE8F84FCC
:10B6300010F056B8606931460FF0E8FF013DE1E7D0
:10B640003046FBF7D9FDB6F85090738F19FA80F9A0
:10B6500015FA80F0B0FBF3F2B9FBF3F39A42AA4675
:10B660001BD0134DA3684845CDDA5A8FB0FBF2F3D7
:10B6700002FB1303461C13B96069FFF79DFEA36824
:10B680005344204693F856300AF1010B2A4608210C
:10B6900010F043F9DA463046E4E75635054A7319A7
:10B6A0000821204610F039F9ADE700BF75270400E6
:10B6B000DF0D04005C16040013B583688DF80710D5
:10B6C000D3F874220446D00725D5B3F85210B3F846
:10B6D00050208A421FD0481CA3F852000B449DF80A
:10B6E000072083F85620A368D3F87412890710D571
:10B6F000D3F8743260690B4913F0040F18BF2A2283
:10B700000FF084FF20460FF0A0FF10B16069FFF733
:10B7100053FE02B010BD01220DF10701204610F0CA
:10B7200009F9F6E7DF0D040010B504468368094AFD
:10B73000022110F0F2F8A368D3F874329B0707D502
:10B740002046FFF76BFE2046BDE810400FF0A3BF78
:10B7500010BD00BF5C160400014910F0DEBA00BF46
:10B76000B3130400F8B50F465168044615461E464B
:10B7700011B11A4610F0DEFAAB6883B131462046AB
:10B78000FFF736FE2046064A3B46082110F0C5F872
:10B79000A968F21D2046BDE8F84010F0CBBAF8BD0C
:10B7A0009E1D04002DE9F04F0F46002189B004468C
:10B7B00016460D4603AA384601F10108FFF78EFD33
:10B7C000A8B98DB126B132460821204610F0A5F85F
:10B7D000DFF89090DFF890B0002103AA384601F11D
:10B7E000010AFFF77BFD60B909B0BDE8F08F006882
:10B7F00010B1FBF701FD80B2854238BF05464146D6
:10B80000D8E7D0F80080B8F1000F0FD098F80030DA
:10B8100063B14668154ACDE900584B4608212046D9
:10B8200010F07BF826B96069FFF796FF5146D4E720
:10B830004B465A460821204610F06FF8AB1DB20760
:10B840009BB209D131680A4A914205D1324641463C
:10B850002046FFF787FFE9E71A463146204610F0F9
:10B8600069FAE3E7BE1D0400C90F0400A91D040026
:10B87000C40BD286F7B50F6805460E46EFB13846C1
:10B88000FBF7BAFC84B2114B009308213B46104AE7
:10B89000284610F042F87168E31C9BB279B18A0720
:10B8A0000DD108680B4A904209D10A4631682846F2
:10B8B00003B0BDE8F040FFF755BF3C46E3E71A464A
:10B8C000284603B0BDE8F04010F034BABA1D0400B9
:10B8D000BB1B0400C40BD28610B507490446FBF716
:10B8E00079FC38B105492046FBF774FCB0FA80F0CA
:10B8F000400910BD0120FCE7B01D0400B31D040089
:10B9000010B58368D3F874329B06044603D5064904
:10B91000406910F07FFAA36850225A87A368182262
:10B920001A87002010BD00BF1F01040008B58369FD
:10B9300002491A680FF03EFB002008BDC11D04003B
:10B940002DE9F3410D490E4C0E4EDFF83C800546C3
:10B950000FF030FB0022B44202F1010703D30020B4
:10B9600002B0BDE8F081636A0093A36892B24146D9
:10B9700028460FF01FFB30343A46ECE7D11D040097
:10B98000E8FE030018FF0300E91D040008B50249A2
:10B990000FF03AFB002008BDB413040073B50E4E3F
:10B9A00004460025A268E0680DF1060302F5AB72BB
:10B9B000012110F0CDFABDF80600A36840B12A4677
:10B9C00003F5AB73314620460FF0F4FA0135E9E791
:10B9D00083F8560102B070BDFA1D040010B504468C
:10B9E0000FF04BFB0349024620460FF0E3FA00201C
:10B9F00010BD00BF01190400022907B50BD153681F
:10BA0000009312680B4B0C490FF0F0FA6FF0150021
:10BA100003B05DF804FB8368084AD3F87432084920
:10BA200013F0020F074B18BF1A460FF0C3FA00209D
:10BA3000EEE700BF081E04001D1E0400041E0400E3
:10BA4000261E0400C011040010B58368D3F87432B8
:10BA50009A06044603D50749406910F0DBF9A3684C
:10BA6000D3F874329B0603D50349606910F0D2F90C
:10BA7000002010BD260104002B010400F0B50129AF
:10BA800085B004460AD05368009312685D4B5E4946
:10BA90000FF0ACFA6FF0150005B0F0BD8368D3F875
:10BAA0007432990603D55949406910F0B3F96FF023
:10BAB000F9012046FFF786FCFA212046FFF798FCA3
:10BAC000A06800254FF48072294600F5AB708DF810
:10BAD0000B5013F02FFE4E49606910F09BF960691E
:10BAE0000FF0D9FA4FF47A766068036801221F6973
:10BAF0000DF10B0103ABB847039BEBB9013E4FF4CB
:10BB00007A70B6B213F05DF8002EEDD1A368D3F8C9
:10BB100074329B0603D53F49606910F07BF9A36836
:10BB20003D4950225A87A368182220461A870FF0F1
:10BB30004FFA6FF00700AFE79DF80B20A3681B2AB0
:10BB400053D093F856111B29CED1522A4DD15A19F0
:10BB5000002382F85631A66896F857215B2A2BD12C
:10BB600006F25710022510F8011F2A463B2905F15D
:10BB70000105ADB223D1FF2AC8D002F5AB7216FA87
:10BB800082F1002211F8010F18BB86F85601FA2A3B
:10BB9000A16828BFFA224A87FA2BA26828BFFA2395
:10BBA0001387A368D3F874329A0603D519496069DC
:10BBB00010F030F900206FE786F85631A6E703EB66
:10BBC0008303303901EB4301B5F5807F8BB2CAD1D5
:10BBD0009CE7013502EB8202ADB2303800EB420047
:10BBE000B5F5807F82B2CDD190E72B440135ADB25F
:10BBF000092D83F856217FF677AFA368002283F8DA
:10BC0000562183E7081E04001D1E040031010400B4
:10BC1000711E040035010400371E04002DE9F04FA9
:10BC2000074689B01546894621B1104610F00BFA37
:10BC300000285BD1032455E05C463CE029460AF528
:10BC4000AB7013F0CAFD0646002854D0FBF7D4FAB7
:10BC500082B2601C01323146304413F051FD22465D
:10BC60005946304613F03EFD4FF020033355BAF8E5
:10BC7000543001331C44AAF8544008F10108002450
:10BC800001994B1C03AA48460193FFF727FB064680
:10BC9000E8B131680022284610F0AEFB0028EFD151
:10BCA000D6F800B0D7F808A0BBF1000FC4D05846B2
:10BCB000FBF7A2FA84B2BAF854302344FF2BBDDD5F
:10BCC0000E4A2B46032138460FF027FE0124B8F117
:10BCD000000F07D0B8682A4600F1540100F5AB7098
:10BCE0000FF05CFB204609B0BDE8F08F4FF0000874
:10BCF00041460224C5E70224E9E700BF39230400D6
:10BD000008B50348034A0021121A10F0E1F908BDF2
:10BD1000A8080020402D00200748084A084908B517
:10BD2000121A10F0D7F90748074A0849BDE8084039
:10BD3000121A10F0CFB900BF00000020A8080020A0
:10BD40002C36040000000020000000202C360400E7
:10BD50002DE9F843054600AF0C46002948D0DFF82E
:10BD6000B890D9F800305A0742D06E468AB0D1E96F
:10BD70000001A3686A46DFF8A4C04FF00508C2E9D5
:10BD800005C0C2E9071342F8108F00234FF4215178
:10BD90004846FDF7F1F9D9F800305B07B54627D0E2
:10BDA0008AB0D4E9030163696A46DFF874C0C2E966
:10BDB0000713C2E905C042F8108F002348464FF42C
:10BDC0002151FDF7D9F9D9F800305807B5460FD001
:10BDD000E3690121134A48460EF089FED9F8003084
:10BDE000590705D0A369104A012148460EF07FFE8D
:10BDF000012D0AD1EFF3058307480268520704D0EA
:10BE00000A4A103B29460EF072FE214628460BF0E6
:10BE1000C1FBBD46BDE8F8836C0600208B230400FF
:10BE2000BA230400E9230400F823040026240400B4
:10BE300030BFFFF7FDBF00BF2DE9F0410B4EDFF82B
:10BE4000308006EB0807CC1B0546324609492046E0
:10BE500013F048FCA01942460021083C13F06AFC8C
:10BE6000C5F8B84007F10800BDE8F0810000000007
:10BE7000080000006C000400054B5A699B689A4258
:10BE80001FBF044A536843F080535360704700BF9C
:10BE9000082C002000ED00E0F8B5374C23685B0764
:10BEA00006460D4603D03549204610F020F9344BA4
:10BEB0009B6ADF0451D52368580703D031492E48C7
:10BEC00010F015F917202E4B9B6A190507D523682A
:10BED0005A0703D02C49284810F009F91820284F98
:10BEE000BB6A9B0519D52368580703D02749224808
:10BEF00010F0FDF8BB6BBA6A11040DD52268520729
:10BF000004D0234A1C4801210EF0F1FD26B11C4A41
:10BF1000936A23F4004393621920194B9B6A5B05D3
:10BF200007D523685F0703D01A49134810F0DFF8DC
:10BF30001A20134B9A6AD60511D52368590703D0E6
:10BF400015490D4810F0D3F81B200D4A936A43F4AD
:10BF50007F43936200232B70F8BD1620B3E79B6AE2
:10BF60009A04F2D523685B0703D00C49024810F00D
:10BF7000BEF81C20E9E700BF6C060020392404004D
:10BF800000ED00E04F24040060240400732404004A
:10BF90008C240400A1240400BC240400D424040044
:10BFA00010B52D4C23685A0703D02C49204610F0B9
:10BFB0009EF82B4B9B6A9B014BD52368580703D0F7
:10BFC0002849254810F093F81E20254B9B6AD9017B
:10BFD00007D523685A0703D023491F4810F087F874
:10BFE0001F201F4B9B6A1B0307D52368580703D0EC
:10BFF0001E49194810F07BF82120194B9B6A590300
:10C0000007D523685A0703D01949134810F06FF871
:10C010002220134B9B6A9B0307D52368590703D043
:10C0200014490D4810F063F823200D4B9B6ADA0386
:10C0300007D523685B0703D00F49074810F057F86E
:10C040002420074A936A6FEA03436FEA134393621B
:10C0500010BD1D20B9E700BF6C06002003250400B9
:10C0600000ED00E01B2504002E25040048250400F7
:10C07000662504008B250400A52504002DE9F04762
:10C08000454D2B68894659078046174603D04349DA
:10C09000284610F02CF8424B9B6ADA0639D52B68FB
:10C0A0005B0703D03F493C4810F021F811243C4B7A
:10C0B0009B6A1E0707D52B68580703D03A493648B4
:10C0C00010F015F81224DFF8D8A0DAF82830990714
:10C0D00021D52B685A0703D034492F4810F007F8B0
:10C0E000DAF83460DAF828301B0651D52B685C0783
:10C0F00005D02F4A2848334601210EF0F8FCB9F14B
:10C10000000F04D0264A936A23F08003936213241D
:10C1100003E01024CBE76FF01506214B9B6AD8078C
:10C1200007D52B68590703D022491B480FF0DFFFC2
:10C1300014241B4B9B6A9A0607D52B685B0703D018
:10C140001D4915480FF0D3FF1524154B9A6AD506E3
:10C1500002D49A6A90070AD55B68190507D541464B
:10C16000304600F053FA10B180F3098802240C4BDA
:10C170009A6A920642BF5A6A22F400525A629A6A36
:10C1800042F0FF029A6200233B702046BDE8F08730
:10C190006FF01506BBE700BF6C060020D025040039
:10C1A00000ED00E0E62504006024040019260400E8
:10C1B0003126040047260400D42404002DE9F04170
:10C1C000744B8AB0D3F8048000AF0446C8F3080665
:10C1D000002585F31188BFF36F8F02F07F43B3F121
:10C1E0007F4F0AD102F00C03082B15D16A4803686F
:10C1F000590702D069490FF07AFF00252C46002329
:10C20000FB71F31E092B00F29F80DFE803F00A9117
:10C21000948D9D9D9D9D9D9712074CBF0C460125B9
:10C22000EDE75D4E33685B0703D05D4930460FF0A4
:10C230005EFF0023FB71574BDA6A900708D533681D
:10C24000590703D0574954480FF051FF00233CE0F1
:10C25000DA6A002A04DA33685A07F7D05249F2E75B
:10C26000DB6A5B00F2D53368580703D04F494A4870
:10C270000FF03DFF474BA1695A6942F480725A6141
:10C28000BFF34F8FBFF36F8F5A6931F8021C22F44E
:10C2900080725A61BFF34F8FBFF36F8F4DF60272FA
:10C2A000914208D09A6AD2B28AB3FA1D012120467F
:10C2B000FFF7E4FE3AE03368590705D023683C4AAB
:10C2C000354801210EF013FC2368FA79DAB907F139
:10C2D000080604F1200C20686168324603C2083465
:10C2E00064451646F7D17A6A002D4DD0C2F3080195
:10C2F00021B96FEA52226FEA42227A6207F10801FD
:10C300001846FFF725FD2837BD46BDE8F0819A6A3B
:10C3100012F47F4F04D0F91D0120FFF7BDFD05E0A9
:10C320009B6AB3F5803F91D3FFF73AFE0346CCE713
:10C33000FA1D0021BBE7F91D0020EEE7164803684F
:10C340005A0783D01B497FE7134803685B073FF414
:10C350007DAF194A194B18F4F87FE8468AB018BF28
:10C3600013466A461649C2E905134FF40073138455
:10C37000103E144BD66142F8103F00234FF4115188
:10C38000FCF7FAFEC54661E722F4FF7222F00102D3
:10C39000B3E700BF00ED00E06C0600209426040027
:10C3A000BF260400D6260400F72604000527040053
:10C3B00024270400402704007B260400662604008E
:10C3C0006427040004000001044B5A6942F0100283
:10C3D0005A615A6922F008025A61704700ED00E084
:10C3E000EFF30880EFF3098101B57246FFF7E6FE2F
:10C3F00001BD00BF0F4880F308880AF02FF9202004
:10C4000080F311880C484FF0AA014FF404620FF03A
:10C410005FFE09484FF40461401880F30988EFF388
:10C4200014800221084380F31488BFF36F8F00F05B
:10C43000B5F8000000600020404E0020084B9B68CB
:10C4400083420BD1EFF3058343B1064B5A6842F0A8
:10C4500080525A605A6A22F400425A620CF00EBBB3
:10C46000082C002000ED00E015498A684FF03000EC
:10C470001044EFF3098C80E8F01F202080F312882D
:10C48000BFF36F8F0F4F4FF000664A698A603E60BE
:10C49000D2F8B8000C4C2060D2F8BC000023C2F8DF
:10C4A000BC3080F3118804B5104600F017F9BDE8E0
:10C4B000044002F1300090E8F01F8CF309887047C7
:10C4C000082C002004ED00E0D81C00201EF0040F12
:10C4D0000CBFEFF30880EFF30980816911F8021CAB
:10C4E0000229FFD001B572460FF0F6FD01BD00BF75
:10C4F00040B2002807DB044A4109012300F01F0075
:10C50000834042F82130704700E100E040B200284B
:10C510000CDB4309064900F01F0020330122824052
:10C5200041F82320BFF34F8FBFF36F8F704700BFD9
:10C5300000E100E0054B420900F01F0053F8222003
:10C54000012303FA00F01040704700BF00E100E053
:10C5500040B20028A8BF00F1604001F10101B8BF5E
:10C56000064B4FEA4111ACBF00F5614000F00F00EF
:10C57000C9B2B4BF195480F80013704714ED00E03D
:10C58000044B054A23F07F039360BFF34F8FBFF343
:10C590006F8F70470070020000ED00E008B5FFF7F4
:10C5A000EFFF0B4AD2F8883023F47003C2F88830CA
:10C5B000EFF3148323F0040383F31488BFF36F8F26
:10C5C000FFF79EFBFFF7A8FB00F05EF80BF01EF9EB
:10C5D00000ED00E042F8203C009B42F81C3C0A4978
:10C5E000019B42F8183C029B42F8143C21F00101E7
:10C5F0004FF0807342F8043C42F8081C0023203AB4
:10C600000265C0F8BC307047658602000A4A0346DE
:10C61000906878B113F1160FD0F8A80005D0A0F1FA
:10C6200040029A4205D8834203D2814228BF0020AB
:10C6300070470020704700BF082C002008B5154641
:10C640000C4A0D4B9060D0F8B8201A600E4600F0EE
:10C6500045F82C4686F309880020044B984720466D
:10C66000002100220023024C2047000005C10300E6
:10C6700065860200082C0020D81C0020014B1022E7
:10C680001A61704700ED00E0044800232021C21821
:10C690000133302B82F80013F9D1704700E100E03C
:10C6A00008B5EFF30583064A103B02EBC30152F8CD
:10C6B000330049688847BDE80840FFF7DDBB00BF8D
:10C6C00014FB0300024B034A0348012100F092B817
:10C6D000000004200000002044060400D0F8A82038
:10C6E000054B403A1A60054A4021C3E90112184639
:10C6F000012100F089B800BFDC1C002000000B15F0
:10C7000008B503461148D0F89020C2F30722013A39
:10C7100093420AD90E480268520703D00D4A0121FC
:10C720000EF0E5F96FF0150008BDC0F898300A6802
:10C7300022F01F021A4342F01002C0F89C208A68BF
:10C7400042F00102C0F8A0201846EDE700ED00E03D
:10C750005C0600207B270400F0B50E4685B01F461E
:10C7600004460025B54210DA606828B3AFB1431E15
:10C7700018420DD0124803685B0704D0114A2B46BB
:10C7800001210EF0B4F96FF01502104605B0F0BDAE
:10C790001F28EFD921680B42ECD1236801930FF0D9
:10C7A000D4FCA36801A90343D0B20393FFF7A8FF09
:10C7B00010F1160FE7D0421C01350C34D2E700BF50
:10C7C0005C060020A1270400044B0522C3F8942036
:10C7D000BFF34F8FBFF36F8F704700BF00ED00E0D6
:10C7E000BFF35F8F024B0022C3F89420704700BF55
:10C7F00000ED00E010B5034C01232278FFF7ACFFF9
:10C80000207010BD682C002008B50B4A0023127858
:10C81000FFF7A2FF10F1160F07D0084A0021D2F847
:10C820009030C3F30723984200DB08BDC2F898009C
:10C83000C2F8A0100130F2E7682C002000ED00E003
:10C840002DE9F04357485849D0F890300D68C3F3AC
:10C8500007239D4285B000F2A180FFF7C1FF496820
:10C860000022954201F10C011AD1504C504F257015
:10C870006846FCF739FFDFF83C81DFF83C9106465B
:10C880000025AE421FD1237846490020D1F89020E0
:10C89000C2F3072293427BDBFFF796FF00204CE0B8
:10C8A000C0F8982051F80C3C23F01F03134343F0C9
:10C8B0001003C0F89C3051F8043C43F00103C0F869
:10C8C000A0300132CDE7009800EB05114FEA051CBE
:10C8D000CB683B40B3F5000F44D00AD8B3F5001F36
:10C8E0002ED0B3F5800F34D0B3F5801F10D00135B2
:10C8F000C7E7B3F1807F3ED0B3F1007FF7D150F8A6
:10C900000C3088684A680FF020FC40F4802009E071
:10C9100050F80C3088684A680FF017FC40F08850D7
:10C9200040F43020039001A92078CDE90123FFF7DE
:10C93000E7FE002828DA6FF0150005B0BDE8F083A7
:10C9400050F80C3088684A680FF0FFFB40EA080096
:10C95000E8E750F80C3088684A680FF0F6FB40EAC8
:10C960000900DFE750F80C3088684A680FF0EDFBEB
:10C9700040F08270D6E750F80C3088684A680FF0B3
:10C98000E4FB40F08870CDE7237801332370AEE7F5
:10C99000C1F89830C1F8A000013377E74FF0FF30BD
:10C9A000CBE700BF00ED00E050060400682C00203B
:10C9B0000000F0FF0000081100000206F0B587B08B
:10C9C00007460E4614460021102268461D4612F006
:10C9D000B1FE02238DF802302A46054B0193214611
:10C9E0006846CDE904760CF0A3FE07B0F0BD00BFA9
:10C9F0006BC1030008B5024B1B689847002008BDB7
:10CA0000E81C0020034B044A1860937843F00203AB
:10CA100093707047E81C0020C802002008B5064942
:10CA2000064821F00701C1F1005202F580220DF005
:10CA300078FA002008BD00BF2F9E0020EC1C0020CB
:10CA400008B500F0B7F80A4941610A490122C0E976
:10CA500000220A6008490A60084A00231360084A55
:10CA600003611360C0E90233064A136008BD00BFCA
:10CA7000B4130400F4020020F0020020001D002086
:10CA8000FC1C0020F81C00202DE9F04107460E4652
:10CA9000154600F08FF8C36804461BB943691A783D
:10CAA000002A41D10023E3606368BB4256F823208B
:10CAB00008DB324B6361204600F062F84FF0FF3034
:10CAC000BDE8F081511C616192F80080B8F12D0F32
:10CAD000EFD1911C61615178A1602D2904D1927828
