:020000022000DC
:10700000C0490020A1960200B37203008D960200D1
:107010008D9602008D9602008D9602000000000001
:10702000000000000000000000000000699702005E
:107030008D96020000000000059702008D96020068
:1070400039990200FDED02003999020039990200D8
:1070500039990200399902003999020039990200E0
:1070600039990200399902003999020039990200D0
:1070700039990200399902003999020039990200C0
:1070800039990200399902003999020039990200B0
:1070900039990200399902003999020039990200A0
:1070A0003999020039990200399902003999020090
:1070B0003999020039990200399902003999020080
:1070C0003999020039990200399902003999020070
:1070D0003999020039990200399902003999020060
:1070E0003999020039990200399902003999020050
:1070F0003999020039990200399902003999020040
:1071000053B94AB9002908BF00281CBF4FF0FF310E
:107110004FF0FF3000F00CB8ADF1080C6DE904CE73
:1071200000F022F8DDF804E0DDE9022304B0704746
:10713000704700BF10F8012B11F8013B012A28BF4E
:107140009A42F7D0D01A7047034611F8012B03F882
:10715000012B002AF9D17047034613F8012B002AAE
:10716000FBD1181A013870472DE9F04786468C4646
:107170000846089E154674461946002B40F0C2800A
:107180008542B2FA82F245D94AB1C2F1200300FA2F
:1071900002FC2EFA03F3954043EA0C0C94404FEAAC
:1071A000154EA8B2BCFBFEF8230C0EFB18CC08FB56
:1071B00000F943EA0C43994528D9EB1808F1FF3749
:1071C00004D2994502D9A8F102072B44A3EB090385
:1071D000A4B2B3FBFEFC0EFB1C330CFB00F044EA34
:1071E0000344A04214D92C190CF1FF3304D2A0425D
:1071F00002D9ACF102032C44241A43EA07401EB121
:10720000D440002334607360BDE8F0874746DDE773
:107210006346F1E792BB431B01214FEA154EAFB223
:10722000B3FBFEFC200C0EFB1C330CFB07F840EA02
:107230000343984562D9EB180CF1FF3004D298450E
:1072400002D9ACF102002B44A3EB0803A4B2B3FBB8
:10725000FEFC0EFB1C330CFB07F744EA0344A74279
:107260004ED92C190CF1FF3304D2A74202D9ACF14C
:1072700002032C44E41B43EA0040C0E7C2F12003B0
:1072800020FA03F1954090402EFA03F303434FEAAE
:10729000154EAFB2B1FBFEFC0EFB1C10190C0CFB23
:1072A00007F841EA0041884504FA02F422D9691836
:1072B0000CF1FF3004D2884502D9ACF10200294418
:1072C000A1EB08019BB2B1FBFEFC0EFB1C110CFBF9
:1072D00007F743EA01439F420ED9EB180CF1FF3147
:1072E00004D29F4202D9ACF102012B44DB1B41EADC
:1072F000004192E76046E3E76146F7E76046A3E7AF
:107300006346B7E7834206D916B9002108467BE7F2
:10731000C6E900E0F9E7B3FA83F78FB9834201D3F6
:10732000724508D8BEEB020460EB030301209C46C3
:107330001EB9002168E73846FAE7C6E9004CF8E7CD
:10734000C7F1200CBB4022FA0CF41C432EFA0CF1BE
:1073500020FA0CF3B84001434FEA14490EFA07F53E
:10736000B3FBF9F81FFA84FE09FB18300B0C08FB7D
:107370000EFA43EA00439A4502FA07F240D9E318AD
:1073800008F1FF3004D29A4502D9A8F10200234443
:10739000A3EB0A0389B2B3FBF9F809FB183308FB26
:1073A0000EFE41EA03418E452CD9611808F1FF33E6
:1073B00004D28E4502D9A8F10203214443EA0040D9
:1073C000A0FB0298A1EB0E014145CE46434602D3F5
:1073D00006D14D4504D2B9EB020E68EB0403013827
:1073E000002EA6D0B5EB0E0261EB030101FA0CFCF6
:1073F00022FA07F34CEA0303F940C6E9003198E7A3
:107400004046C5E74346D9E72DE9F04F89B0054628
:10741000049116460593836806AA5B68984700287E
:1074200032DBDDE9064A204BDFF88080A4FB03B2A3
:1074300003FB0A230393039919A3D3E900235846B6
:10744000FFF75EFE4FF0FF39039BD94578EB03034E
:1074500007461CD3A6FB04B406FB0A4410A3D3E9D9
:10746000002321465846FFF74BFED94578EB04042C
:1074700003460CD38742AA680CD30599009114687F
:1074800004993A462846A04709B0BDE8F08F6FF04E
:107490008500F9E76FF01500F6E700BFAFF3008055
:1074A00000CA9A3B00000000002D3101FFC99A3B41
:1074B00038B5194C9DF810E094F828C01CF001056F
:1074C00021D163F3420C4001237DA1834FEACE0E0C
:1074D0000EF0180E00F0200040EA0E0023F03803F2
:1074E00003430E4823759121A2FB000384F828C0B2
:1074F00001FB023106A3D3E90023FFF701FEC4E933
:107500000800284638BD0C25284638BDAFF300805A
:107510008D49FD1A07000000400F0020002AE78473
:107520002DE9F043044600F1150190F82800237D71
:107530003B4DC0F3400060F386138DB0237506F019
:107540007BF9227DA38B3748246102F079024FF04A
:10755000000922759121A3FB0002C4E9029984F875
:10756000009001FB03212CA3D3E90023FFF7C8FD02
:10757000626A02F1090398428EBF19464A460146E3
:10758000294B22626160651BA3FB0535064606F0A8
:1075900017F94F460DF12C08CDF82080069403977B
:1075A000A38B00F109091F489121A3FB000201FBF5
:1075B0000321636804931D4B07931D4B059302231E
:1075C0000B9315A3D3E90023FFF79AFD1046194644
:1075D0004FF47A720023FFF793FDC5F34715023588
:1075E000EDB2CDE9016003214B462A4600973846AB
:1075F00006F088F8414606F06DFB40B994F8283053
:1076000043F0010384F828300DB0BDE8F0830C206E
:107610000DB0BDE8F08300BF8D49FD1A07000000E2
:10762000400F0020002AE784A38B2EBA91D80200D5
:1076300031EC0200000000002DE9F041C46823791C
:107640006FF300038CB023710F46054608F094FBDE
:10765000002008F0B5FB0021084608F0A3FB082035
:107660000022252108F0E0FB012006F0C1FB0028E4
:1076700064D01C3008F002FC494B0B930BA808F0B7
:10768000BFFB484940F25B6008F066FC2079C0F31C
:107690004100253007F08CFE4348214608F040FBAE
:1076A00023799B062DD5962008F080FD00231A46ED
:1076B0001946184608F0B2FCD4F800802E684046FF
:1076C00007F062FE06446A6806F10901002008F02E
:1076D00079FD08F035FE08F011FD204607F06AFB41
:1076E000811CC9B24046324607F050FE054648BBF1
:1076F00057B1204607F016FE10BB00200CB0BDE8C5
:10770000F08108F0EBFCD7E72369002BF1D0274D7F
:107710000795274D059540F2F3150093CDE90377C2
:10772000CDE901770694334601223946089505F0E4
:10773000E9FF10F0FD0FDCD000DEDAE700DE98E7AD
:1077400000DEDAE71B4A1C491C4840F2E5130EF044
:10775000EAFF1B4B0721A5FB030301FB05310EA329
:10776000D3E90023FFF7CCFC1649024616480EF079
:10777000DAFF002585F31188BFF36F8F03231846C6
:1077800002DF1248214608F0CBFA08F091FB6FF0B7
:107790008B00B3E7AFF3008000CA9A3B0000000003
:1077A000D6BE898E5555550011F90200A5F6020086
:1077B000B5F6020080AC0300CCAC030038AC03008B
:1077C0008D49FD1AFCAC0300D0AC030031F7020078
:1077D000522810B504463DD00BD842284FD0472838
:1077E00044D023462A4A2B48BDE8104002210EF01F
:1077F0000EBD5528F5D1284A264840F6C41303216A
:107800000EF005FD40F6C41200234FF47A714A438E
:1078100022481946FFF7F8FD031E04DA204A1D48E6
:1078200001210EF0F4FCA4F15203594259411D48C4
:107830000EF00BFDA4F1470251421B4851410EF0DE
:1078400004FDA4F1420041424141BDE81040174807
:107850000EF0FBBC4FF4FA73154A0E4803210EF0EC
:10786000D6FC1023134A32F81320CDE74FF47A7375
:10787000114A084803210EF0CAFC0523F2E74FF431
:10788000E1630E4A034803210EF0C1FC0023E9E73F
:10789000A5AF030054A8030074AF030070A5030054
:1078A000CBAF030068A9030060A9030058A9030037
:1078B000FCAE0300CCAE030022AF03004BAF0300CD
:1078C0002DE9F04387B000AF0022C7E90022BA607B
:1078D0000E4693E8070007F10C0484E807003049DE
:1078E0003A46204603F0E2FA3B78002B4FD07B88E3
:1078F000B3F58A5F4BD12B4B7A689A4247D13B7ADA
:10790000C12B44D12849B87A0B787A7A8342274B25
:1079100002D11C7894423AD008701A7012F069FBB8
:10792000DFF88C804FF47A73A0FB030503FB01554D
:10793000D8E90023C40B44EA454494424FEAD535C4
:1079400075EB030323DBE9468AB0797ABB7A6A4692
:107950001848C2E907360523C2E9050142F8103F7D
:10796000154800234FF4235101F09AF8787A00F07B
:10797000EF03422BCD4601D047280CD1FFF728FF5B
:1079800040F6B833E41845F10005C8E900451C3756
:10799000BD46BDE8F0835520FFF71AFFF7E700BFAB
:1079A0001362030001F01140922200209322002074
:1079B00008080020E3AF030054A80300F0B587B027
:1079C000594811F047FF20B3574811F043FF00B367
:1079D000554811F03FFFE0B154480EF04AFC5448BE
:1079E0000EF047FC53480EF044FC534811F032FFB0
:1079F000B8B100231946514A4F48FFF705FD031E51
:107A000012DA4F4A4F4801210EF001FC002007B066
:107A1000F0BD4D4A4B486FF0120302210EF0F7FB08
:107A2000E3E76FF01203ECE7484D284611F012FF30
:107A300050B9474A434801210FF062FB6FF012042E
:107A4000444A2346022133E01022002102A812F00A
:107A500022FCAC68404F02238DF8143041F2883686
:107A6000A368039602A92846984700280346386071
:107A70000EDA3A4A334801210EF0C9FB3C68002C6B
:107A8000DEDB002004F01AF9031E15DA344AB9E7E8
:107A90000021236828469847041E06DA314A2948FF
:107AA000234601210EF0B3FBCAE72F4A33460321D8
:107AB00024480EF0ACFBE4E72C492D4804F008FE06
:107AC000031E01DA2B4A9DE72B4A1E4803210FF0C3
:107AD00017FB5520FFF77CFE00214FF4C03012F059
:107AE000DFF9264A174803210FF00AFBC123009350
:107AF000234A244B1348184C144E234F03210FF0F4
:107B000012FB2168AB683046DB689847031E04DA35
:107B10000C483A4601210EF07AFB00214FF4004058
:107B200012F0BEF9EDE700BF90A4030068A90300BE
:107B300060A9030058A9030070A50300A025260032
:107B400018B0030054A80300FEAF030010A5030003
:107B50002EB00300A6B00300A012002048B003001E
:107B6000BFB003006CB0030086B00300C178020010
:107B7000EEAE0300D9B00300EFB003000BB1030079
:107B800031B1030001F011405BB103002DE9F04F6A
:107B900091B08407009302F004030293C2F3C2037E
:107BA00003F10103DDF86880039205460E46059354
:107BB00040F0BA81041D30B1072909D86FF01B00CD
:107BC00011B0BDE8F08F01F007063444C6F1080695
:107BD000009B4FF00009591E4FF0040A4FF0FF338D
:107BE0000193CDF810904F46CB4653460DB1009A05
:107BF00022600598002800F3E8809848009A8242A5
:107C000003D397488242C0F0E080039AA4EB050EAC
:107C100092074FEA9E0000F103810F2F00F2B1801E
:107C2000002D00F0058107F140020DEB020C019AD6
:107C30000CF8200C0CF8102C049801300490E7E0AC
:107C40007A285DD84B280ED8472859D829282DD80E
:107C5000252852D054D820287AD02338D0F1000BD0
:107C60004BEB000B74E04C382E2849D8DFE800F0CD
:107C70007048484848484848484848484B48484859
:107C8000484848484859484B4B595959704B6D48DA
:107C90007048184B184848827F4B48484B487F0033
:107CA00000204FF0000B4FF0040A38E02A38C0B231
:107CB000012202FA00F010EA0E0F49D110F0625CC6
:107CC0002FD110EA020B43D06046013C5444B4FB70
:107CD000FAF40AFB04F4002D61D0A3EB050CA444D4
:107CE000B4453FF66BAF002868D1042B47D158F854
:107CF000043B2360043404232AE0019A013A0192F0
:107D00004FF0000B24E011F8010C6C2834D111F86D
:107D1000023C00206C2B8346C5D14FF0080A534625
:107D2000D3E708F1070828F007080734F8E802ABA2
:107D300024F0070435B106982044B0423FF63EAF28
:107D4000C4E900AB08344FF0000B4FF0080A53466B
:107D500011F8010F002878D0BBF1000F7FF470AF4D
:107D60002528F5D1019B013301934FF0010B4FF012
:107D7000040AECE7584694E700208346A5E7082B61
:107D800002D06FF015001BE708F1070828F007087C
:107D9000F8E80223C4E9002308340823D8E768B9C7
:107DA000042B02D108F10408A4E7082BE9D108F15B
:107DB000070828F0070808F10808EDE7059A013AD6
:107DC000059258F8042B009210E7039A900720D5EB
:107DD000A4EB050E4FEA9E004FF0010CBEF5007FAC
:107DE000CFD20F2FCDD8F5B107F140020DEB020E27
:107DF000C0B2019A0EF8200C0EF8102CBCF1000F46
:107E00003FF41AAF60F07F000EF8200C09F1010971
:107E10000137C5F10802043406924FF6DA7E97E77F
:107E20004FF0000CDAE7BCF1000F01D00136EFE7AC
:107E3000029802360028EBD10098CDE90631FFF711
:107E40008BF9DDE906310644E2E7631BB3F5806F89
:107E500097D23DB9A6F10804E018B1E6B0A303003B
:107E6000FCC50300029A28609B082B709DF8103017
:107E7000C2B1EB7085F80290B9F1000F05D008A8E7
:107E80000022C5F1010C97420ED1C5F101030DF19D
:107E900020084FF0000A01930DF1300B574512D125
:107EA000601B8DE66B70E5E710F8013B190608D5FD
:107EB0000CEB040EB64503F07F033FF67FAE04F8EB
:107EC000013B0132DFE7B9F1000F03D098F9002040
:107ED000002A17DB029BD3B11AF80B2004F8012B00
:107EE0000022019B18191044B0423FF667AE98F883
:107EF000000004F8010B00990392204612F0BDF92E
:107F0000039A14440AF1010A08F10108C6E798F837
:107F1000002055F822300093029B45F8223000984B
:107F2000FFF71AF9421CDCE76FF00D0048E600BFCE
:107F30002DE9F04F97B000AF90F802A0D7F880B0CD
:107F40003B62CBF3C0030446FA62BB61894641B988
:107F5000457800780AEB800020444D4517D8A0EB07
:107F60000409E378FB61BAF1000F02D01BF0010FA6
:107F700016D1FB6953BBFB6A1BB13A6A49462046DE
:107F800098474D4628465C37BD46BDE8F08F461CF5
:107F90003046FFF7E1F80130304409F10109DCE730
:107FA000237862687A62FA6A9900796104EB830146
:107FB000002A40F000814D460E4601EB0A094FF0C1
:107FC00000084E454CD101EB0A0610E01BF0020FF1
:107FD000D1D023789A007A6162687A62FA6A04EBF7
:107FE0008301002A77D14D4601EB0A0690461BF02B
:107FF000050F0CBF02230123FB62FB6906EB430A5A
:108000000BF00203BB625645BCD016F8021B16F8F3
:10801000013C54F82390994B994502D3984B9945CC
:1080200036D3BB69002B40D0786A0EF046FB00289F
:108030003BD0E9468AB06A46924B53617B6AC2E9FB
:1080400006314FF4007313848F4B42F8103F8F4872
:1080500000234FF4125100F023FD023DCD46D2E73C
:1080600016F8013BF96254F82300FFF775F8D7F8CA
:108070008430F96A01304BB1D7F8883098453EBF5B
:10808000D7F8843023F8180008F10108054498E770
:10809000BB6923B1786A0EF010FB0028C9D11BF030
:1080A000010F05D1FB6AED1AADE7BB6A002BAAD020
:1080B0004846FFF751F8D7F8843053B1D7F88830E5
:1080C00098453FBFD7F88420431C22F8183008F1A8
:1080D0000108054497E7BAF1000F72D01BF00406BF
:1080E00072D0D046002607F1480052463B61B96283
:1080F00012F0C3F8B96A3B6901EB0A02BA62FA6985
:10810000F9695200FA60BA6A02EB41023A610BF077
:108110000202BA603A69B96A8A4257D162787A62D1
:108120001BF0020F32440CBF4FEA580100211BF034
:10813000010FD2B240F09F801BF0040F14BF4046E5
:108140000020BB616270A070E1703A6A7969FB6AD5
:1081500020469847051EFFF615AFBB6923707B6A62
:108160006370FB69E37041463A6AFB6A84F802A0D7
:1081700007F148009847B0F10008C0F2BB807B6966
:108180003A6AA9EB0A01C91AFB68C91AD7E90A03B6
:1081900098470028C0F2B080A84408EB00054FF0D3
:1081A000000B07F1380AB34572D300213A6AFB6A23
:1081B00008469847E6E656464FF0000807F13800B3
:1081C00093E75646D04697E7B04695E7BA6A12F865
:1081D000021BBA6212F8015C284A54F8250090424A
:1081E00002D3274A90421ED3BA6932B1786A7B60C3
:1081F0000EF063FA7B6800288CD1BA6802BB08F1E4
:10820000280207F1300C08F10100944407F15802EC
:1082100052FA80F008F102080CF8101C5FFA88F896
:1082200000F8105C76E7BA693AB1786A7B600EF0C4
:1082300044FA7B6800287FF46DAF1BF0010F09D072
:1082400006F1280207F13000711C161806F8205CB0
:10825000CEB25FE71BF0040F3FF45CAF08F12802D9
:1082600007F1300008F1010102EB000808F8105C8A
:108270005FFA81F84EE7002063E700BFB0A3030078
:10828000FCC503007DB103000400000144A8030005
:108290001BF80A3087F8373054F82390D7F8843029
:1082A0002BB3D7F888309B4521D2D7F8843033F8E8
:1082B0001B803A6AFB6A012107F1370098470028C2
:1082C0001ADB0544B8F1000F06D14846FEF744FF1B
:1082D00000F101081FFA88F83A6AFB6A41464846ED
:1082E0009847002808DB05440BF1010B5BE74FF0D2
:1082F0000008DEE7454645E6054643E6014B1860C3
:10830000704700BF1802002080B505460E4617468C
:1083100098460DF033F9034612F040F8DFF8189054
:10832000044649F80030424630463946A84754F8DA
:10833000090001F0D1F900BF080000002DE9F04765
:10834000058B04462807904611D4022905F007053D
:1083500040F0CC8020460EF078FC78B10138218BBB
:10836000042811D8DFE800F0C2106D8595000129BE
:108370000CBF45F0100545F02005258388F31188D2
:10838000BFF36F8FBDE8F08701F0070AAA4500F040
:10839000A5800027B9463E46A368002B00F0BC80AC
:1083A00041F00801218388F31188BFF36F8FA16822
:1083B000002900F0BA800D68002900F0B680D1F8DD
:1083C0000480334652462046C047002D76D02B68A5
:1083D00029461D46F0E701F007035A1F012A1BD862
:1083E000002221F00701062B276889B2C4E9002288
:1083F00009D13B4603E0628B013262831B68002B8C
:10840000F9D141F00201218320460EF01EFC002824
:108410007AD041F0200176E0042B0AD121F0070147
:1084200089B2218320460EF010FC10B141F02001EA
:108430002183218B01F0070AAA454FD00027B946B6
:10844000AAE7236921F0070141F00601062DD3F8C0
:10845000009021832DD1B9F1000F3FD041F00801E8
:10846000218388F31188BFF36F8F3A492046C847AC
:1084700029E021F00701236941F0040189B2042DAC
:10848000D3F804902183E6D000273E464FF0040A3B
:1084900082E721F00701236941F0050189B2052D2A
:1084A000D3F808902183D6D000273E464FF0050A26
:1084B00072E700273E464FF0060A6DE72B4687E736
:1084C000B9F1000FD1D1EFF31188202383F3128883
:1084D000BFF36F8F238B23F008032383258BEA06DA
:1084E0002ED525F01003238305F007056669218B3F
:1084F000002EBFF670AF00232768C4E9003321F0D7
:10850000070141F001012183218B01F0070AAA45EF
:108510004FF000097FF440AF002F9CD041F00801DC
:10852000218388F31188BFF36F8F002FC8D03D6877
:1085300039463346524620460EF0B3FB2F46F4E749
:10854000AB067FF51BAF25F02003238305F007055D
:1085500000E700BFCF6C03002DE9F047DFF858803B
:10856000044607464FF0010914B93846BDE8F087C4
:1085700094FAA4F5B5FA85F509FA05F32E0108EB8E
:1085800005156FEA030A24EA03042B7B002BEBD0CA
:1085900058F806301B694BB94644042273682846D4
:1085A000196807EA0A070EF03BFDDDE72846984701
:1085B0000028D9D1F0E700BFD4A8030030B5104996
:1085C000104889B0002211F05CFD0F4D0F494FF4A7
:1085D00000320023CDE9062300240E23CDE9033425
:1085E000CDE901440A4B00944FF4407228460CF048
:1085F00001FD0849284611F09BFB204609B030BD1B
:1086000019860200A80C00201008002080230020FA
:108610004589020031B2030001480CF039BA00BFAD
:10862000780600202DE9F047804621480F460EF0DD
:10863000D7FC0646002833D000252846BDE8F08741
:10864000237B83B12368DB680BB1204698476368BE
:1086500083F8069023681B69D3B9636804221968FC
:1086600020460EF0DDFC013610345445E8D3B8F155
:10867000000FE2D0002DDFD02846FFF76DFF054642
:10868000002FF7D000214FF4A47011F009FCF1E79E
:10869000204698470028E0D009FA06F31D43E2E798
:1086A000044CDFF814A005464FF00109DDE700BFD8
:1086B000B4120020D4A80300E4A80300014B53F82F
:1086C0002000704784A9030008B5034608462BB173
:1086D000044A136000F07AFC002008BD6FF015001A
:1086E000FBE700BF1C02002010B5044C237813B92F
:1086F00003480CF0CDF90123237010BD9422002013
:108700007806002010B504460B480EF069FC5CB1F9
:10871000BFF35B8F094B53E8001F013943E8001298
:10872000002AF8D1BFF35B8F054811F0B6FC05486D
:10873000BDE810400CF0ACB9AC120020B012002023
:10874000A80C0020780600200020064BBFF35B8FAA
:10875000014653E8000F43E80012002AF9D1BFF3A5
:108760005B8F7047AC12002070B5FFF7EDFF084C2F
:10877000084E0546B44200D370BD63685B792BB1E7
:1087800023685B6813B12946204698471034F1E707
:10879000D4A80300E4A8030010B5044C0449204603
:1087A0000EF0D1F8034B1C6010BD00BFBC050020CB
:1087B00070A90300A41200200D4A0E48002310B532
:1087C00013700D4A13600D4A4FF400411360FFF718
:1087D0007BFFFFF7E1FF0A4B0A4918468B4200D3A3
:1087E00010BD1A1A5C681211013222711033F5E7BC
:1087F00095220020DD6F0300AC120020B012002093
:10880000D4A80300E4A80300014600220148002385
:108810000EF0BAB8BC05002001480EF053B900BFF5
:10882000BC050020024B014618680EF09FB900BF3E
:10883000A412002001480EF0D4B900BFBC050020EE
:1088400070B5294B187800284DD0FFF7E5FF054695
:10885000002845D1254B264C1B68002B19DD11F053
:10886000C8FB4FF47A72A0FB020302FB0131C30B79
:10887000D4E9002043EA41439B1A4FEAD13140F248
:10888000E93261EB0001934271F1000101D3FFF77E
:108890006BFFD4E9003213F57A7342F10002C4E9A8
:1088A0000032BDE87040FFF7C5BF63685B7923B154
:1088B000236829461B68204698471034B442F4D3F5
:1088C0002846FFF7AFFFBFF35B8F0A4B53E8001F4B
:1088D000013943E80012002AF8D1BFF35B8FB9E7F2
:1088E000054C064EEAE770BD94220020AC12002031
:1088F000A00C0020B0120020D4A80300E4A80300BC
:1089000070B50D4D297861B90120FFF78BFE0B4C36
:108910000B4EB44206D3FFF793FF0028FBD101238F
:108920002B7070BD63685B791BB1236820469B6820
:1089300098471034EDE700BF95220020D4A803002B
:10894000E4A8030000212DE9F0470846FFF76AFE7E
:10895000044658B340F267684FF0000911F01EFD5D
:108960001B4B1C4A1B58136033B11B4B1B68092B54
:1089700002DD1A480CF08CF8194FDFF860A00025D2
:1089800044B12046FFF7E8FD044618B94FF0FF3820
:108990004FF0FF39FFF754FF064628B9B5B94246F4
:1089A0004B4650460CF0AEF83546E9E74FF0FF383D
:1089B0004FF0FF39D2E72B689B691BB100221146AB
:1089C000284698471035BD42F5D3E8E7054DFAE74C
:1089D00008000000A8120020B01200207806002035
:1089E000E4A80300D4A8030013B518480EF0F8FA61
:1089F000174B1B7873B1EFF31184202383F3128894
:108A0000BFF36F8FFFF71CFF84F31188BFF36F8FE5
:108A100002B010BD0F4B1B68002BF9D050B90022DB
:108A20000023CDE900230C484FF4004200230DF051
:108A30009BF8EDE70928EBD1074811F02EFB07481A
:108A400002B0BDE810400CF023B800BFB012002007
:108A500095220020A8120020A80C002078060020F3
:108A600010B5064B1B68044698472146A060044891
:108A70000EF009F8BDE81040FFF7B6BF1C02002059
:108A8000BC050020044A054B9B1AB1EBD30F34BF41
:108A900052F831000020704704A80300D4A8030056
:108AA0002DE9F04F8FB004AFC1F34A28B8600D46EE
:108AB00091467B600C0DB8F1000F63D0002607F1E2
:108AC00014034FF0040B4FF00A0AC7F80C80C7E9F3
:108AD00007667E620193CDF808B0CDF800A007F1DB
:108AE0001C03F96832464846FFF722FAB0F5006FDA
:108AF00003461CD36C468AB0D9F8041004AB264850
:108B0000C3E9050140F2FF71D9611A464FF40071C3
:108B10001984224B42F8103F214833464FF412513A
:108B2000FFF7BEFFA5462C37BD46BDE8F08FC0F36A
:108B30000A0804F11700184420F0070080083B6081
:108B4000FFF762FE68F35325044690B13B68154A6F
:108B5000C7E9083600F1100107F11403F961CDE906
:108B600000A3CDF808B0F96807F11C034846FFF7E9
:108B7000DFF968F353257B68B9682A4620460EF072
:108B80006FFAD0E704F1170020F007008008FFF724
:108B90003BFE0446EDE700BF46B2030004000001BF
:108BA00064A80300337003002DE9F04F87B0DDE9BE
:108BB0001279DDE9105A0446039193469846BFB1F5
:108BC000CDF800903B46524610210020CDF814907D
:108BD000FEF7DCFFB0F5006F06460AD3184A1948C5
:108BE00040F2FF73022107B0BDE8F04F0EF091BADA
:108BF0003E4605F11700304420F0070004F007045A
:108C00008008FFF701FE0BF0070BE40044EA8B1429
:108C100044EA462444EA0554054640B13FB1CDF844
:108C200000903B46524631461030FEF7AFFF0399A5
:108C300043462246284607B0BDE8F04F0EF010BA72
:108C400085B2030064A80300406820B1034BC01A3A
:108C500040F3CF0070474FF0FF30704704A8030087
:108C60000EB403B503AB014653F8042B044801933B
:108C700000F0E8FF02B05DF804EB03B0704700BFFE
:108C800075710300CA0605D48B064CBF024903491F
:108C9000FFF7E6BF704700BFBEB20300BDB20300DE
:108CA0002DE9F04F89B09B46149B06939DF84CA08C
:108CB000159B0593169B179E049304460D469046FC
:108CC000BAF1000F00F09D8006F4807307930EF058
:108CD000A5F906F00209024600283ED09149204637
:108CE000FFF7BEFF0746B9F1000F08D016F0440F9A
:108CF00035D18D492A462046FFF7B2FF074406F0DA
:108D0000010353B1894B8A4953F82A20894B2046E5
:108D1000002A08BF1A46FFF7A3FF06F48073002B52
:108D200049D006F00803002B63D1B8F1000F66D0DC
:108D3000814942462046FFF793FF0546069B3D4486
:108D4000002B6DD1049B002B73D1F30700F1E4805D
:108D500031462046FFF796FFD8E00746C3E7774B3A
:108D600018680028CAD0764B4FF47A791B68B5FB97
:108D7000F3F54FF46163B5FBF0F100FB115509FB0E
:108D800005F54FF03C0CB1FBF3F203FB1211B5FB00
:108D9000F0FEB1FBFCF300FB1E550CFB131109FBAD
:108DA00005F50091B5FBF0F56649CDE901E52046F2
:108DB000FFF756FFA2E706F00803EBB1624B6349E9
:108DC00053F82A202046FFF74BFF0546B8F1000F65
:108DD00005D0594942462046FFF742FF0544BBF102
:108DE000000FABD05A495A462046FFF739FF0544D9
:108DF000A4E74FF0000BE1E706F00805E6E745467B
:108E00009CE7BBF1010F069B06D1002B64D1049BAC
:108E1000002B7BD000250CE0002BF8D04D485CE007
:108E20004D48069B4D4922460DF016FC049B002B35
:108E300068D0DFF82C81DFF82C91049F3146102F89
:108E4000204628BF1027FFF71DFF4FF0000B5D45A0
:108E500045DC059B49461A782046FFF701FF4FF095
:108E6000010B1BF0070F03D141462046FFF7F8FE28
:108E70005F453BD9059B494613F80B202046FFF779
:108E8000EFFE0BF1010BBBF1100FEAD13649204682
:108E90004FF0000BFFF7E4FE5A46059B9A5CA2F1E7
:108EA00020015F2928BF2E2230492046FFF7D8FE37
:108EB0000BF1010BBBF1100F1DD01BF0070F03D1FD
:108EC00041462046FFF7CCFE5F455A46E5D841466D
:108ED0002046FFF7C5FEEBE71F485546A1E7414690
:108EE0002046FFF7BDFE0BF1010BB0E720492046FD
:108EF000FFF7B6FEC5E7059B3B440593049BDB1BD0
:108F000004939AD1BAF1000F7FF41FAF204609B045
:108F1000BDE8F04F0EF021B9064A05492046FFF79B
:108F20009FFE15E7C5B20300C9B2030094A9030070
:108F300064BB0300C0B20300EEB20300BC12002009
:108F4000B8120020D2B20300A8A90300F2B20300B5
:108F5000F8B20300AB71030075710300459C020079
:108F600005B30300FDB2030007B3030009B3030018
:108F700003B3030073B542F20F738B4228BF0B4655
:108F800005680F4A0446052168460CF0B9FE63687F
:108F90000C495B6806460B2228460EF0D0F8636841
:108FA0003246694628465B680EF0C9F86368064990
:108FB0005B681B2228460EF0C2F802B070BD00BFED
:108FC00071B1030028B303000CB30300074A00216A
:108FD0000123904206D8064A01B901231360054BCC
:108FE0001860704740085B000121F2E740420F0023
:108FF000B8120020BC120020F8B5074F0D460446F9
:109000004618B44201D12846F8BD14F8011BBB68CC
:1090100001485B689847F4E7B0A40300014B036084
:1090200000207047F0A9030007B51B491B480EF04C
:1090300040FB70BB1A4919480EF03BFB48BB19496D
:1090400016480EF036FB20BB174914480EF031FBD2
:10905000F8B90146154A11480EF0F4FDC8B90246A8
:1090600013490E4801230EF0C8FE90B90123009366
:10907000014602230948EF220EF03BFA48B907489F
:109080000EF060FA28B9054803B05DF804EB0EF065
:1090900089BA03B05DF804FB9C0200207807002029
:1090A000840200206C0200205402002028020020CC
:1090B0006EB3030008B50348034A0021121A0EF0EC
:1090C000F0F808BD08080020702300200748084A6F
:1090D000084908B5121A0EF0E6F80748074A084989
:1090E000BDE80840121A0EF0DEB800BF00000020F4
:1090F00004080020FCC50300000000200000002040
:10910000FCC503002DE9F047064600AF0C460029D8
:1091100036D0E9468AB0D1E90012A3686D462148ED
:10912000A8464FF0050AC5E90501C5E9072348F837
:1091300010AF1D48424600234FF42151FFF7B0FC09
:10914000CD46D4E903126369AD461848C5F810A0AE
:10915000C5E90501C5E907231348002342464FF43A
:109160002151FFF79DFCCD46E369114A0E480121CC
:109170000DF0CFFFA3690F4A0B4801210DF0C9FF85
:10918000012E07D1EFF305830B4A0748103B314608
:109190000DF0BFFF214630460BF0C0F8BD46BDE8DC
:1091A000F08700BFBEB303009CA80300EDB303002B
:1091B0001CB403002BB4030059B4030030BFFFF705
:1091C000FDBF00BF2DE9F0410B4EDFF8308006EB0C
:1091D0000807CC1B054632460949204611F04DF8D8
:1091E000A01942460021083C11F055F8C5F884400A
:1091F00007F10800BDE8F081000000000800000051
:10920000E4A80300054B5A699B689A421FBF044AB1
:10921000536843F080535360704700BF54220020CE
:1092200000ED00E070B5294C06460D462848294956
:109230000EF046F8A36AD9043CD5254826490EF01D
:109240003FF81720A36A1A0504D5214823490EF0D8
:1092500037F818201D4CA36A9B0512D51C482049DD
:109260000EF02EF8A36BA26A100409D51D4A184807
:1092700001210DF04EFF1EB1A36A23F40043A36247
:109280001920124CA36A590504D5114816490EF04D
:1092900017F81A20A36ADA050ED50D4813490EF007
:1092A0000FF81B20094A936A43F47F43936200231B
:1092B0002B7070BD1620C5E7A36A9B04F2D5044845
:1092C0000B490DF0FDFF1C20ECE700BF00ED00E0B6
:1092D0009CA803006CB4030082B4030093B40300A1
:1092E000A6B40300BFB40300D4B40300EFB403007A
:1092F00007B5030010B5204C204921480DF0E0FFD0
:10930000A36A990136D51E481E490DF0D9FF1E20CB
:10931000A36ADA0104D51A481B490DF0D1FF1F20BA
:10932000154CA36A1B0304D5154818490DF0C8FF56
:109330002120A36A590304D5114815490DF0C0FF37
:1093400022200D4CA36A9A0304D50D4811490DF053
:10935000B7FF2320A36ADB0304D509480E490DF0AB
:10936000AFFF2420044A936A6FEA03436FEA134372
:10937000936210BD1D20CBE700ED00E036B5030081
:109380009CA803004EB5030061B503007BB5030044
:1093900099B50300BEB50300D8B503002DE9F84325
:1093A000364D804689463648364917460DF088FFC7
:1093B000AB6ADE0627D5344931480DF081FF112410
:1093C000AB6A1D0704D531492D480DF079FF1224F1
:1093D0002A4DAB6A980718D52D4929480DF070FF22
:1093E0006E6BAB6A190646D52A4A254833460121D9
:1093F0000DF08FFEB9F1000F03D0AB6A23F08003AC
:10940000AB62132403E01024DAE76FF015061B4D5E
:10941000AB6ADA0704D5204919480DF051FF14242E
:10942000AB6A9B0604D51D4915480DF049FF15246C
:10943000124B9A6AD50602D49A6A90070AD55B68DD
:10944000190507D54146304600F02EFA10B180F3D9
:1094500009880224094B9A6A920642BF5A6A22F48A
:1094600000525A629A6A42F0FF029A6200233B70ED
:109470002046BDE8F8836FF01506C2E700ED00E076
:109480009CA8030003B6030019B6030093B40300BD
:109490004CB6030064B603007AB6030007B50300B8
:1094A0002DE9F041664B8AB0D3F8048000AF044642
:1094B000C8F30805002686F31188BFF36F8F02F00A
:1094C0007F43B3F17F4F07D102F00C03082B12D179
:1094D0005C495D480DF0F4FE002634460023FB7124
:1094E000EB1E092B00F28A80DFE803F00A80837C00
:1094F00088888888888610074CBF0C460126EDE7CF
:10950000524951484E4D0DF0DBFE0023FB71EB6AD2
:109510009A0705D54E494C480DF0D2FE002332E0A3
:10952000EB6A002B01DA4B49F5E7EB6A5B00F5D5F6
:10953000494945480DF0C4FE6B69A26943F4807344
:109540006B61BFF34F8FBFF36F8F6B6932F8022CE3
:1095500023F480736B61BFF34F8FBFF36F8F4DF6B2
:1095600002739A4208D0AB6ADBB273B3FA1D0121D1
:109570002046FFF713FF37E02368384A32480121BD
:109580000DF0C7FD2368FA79DAB907F1080504F18F
:10959000200C206861682A4603C2083464451546D9
:1095A000F7D17A6A002E45D0C2F3080121B96FEADB
:1095B00052226FEA42227A6207F108011846FFF749
:1095C000A1FD2837BD46BDE8F081AB6A13F47F4F9B
:1095D00004D0F91D0120FFF725FE05E0AB6AB3F5C5
:1095E000803F9BD3FFF786FE0346CCE7FA1D0021A0
:1095F000BEE7F91D0020EEE719498CE7194A1A4B1E
:1096000018F4F87FE8468AB018BF13466A4617492F
:10961000C2E905134FF400731384103D144BD56158
:1096200042F8103F084800234FF41151FFF738FA71
:10963000C54673E722F4FF7222F00102BBE700BFC8
:1096400000ED00E0C7B603009CA80300F2B60300DB
:1096500009B703002AB7030038B7030057B7030060
:1096600073B70300AEB6030099B6030097B70300C3
:1096700004000001044B5A6942F010025A615A6911
:1096800022F008025A61704700ED00E0EFF3088015
:10969000EFF3098101B57246FFF702FF01BD00BF7C
:1096A0000B4880F3088809F04DFD202080F31188D5
:1096B00008484FF40461401880F30988EFF31480E0
:1096C0000221084380F31488BFF36F8F00F0B4F8D1
:1096D000C049002000380020084B9B6883420BD112
:1096E000EFF3058343B1064B5A6842F080525A604B
:1096F0005A6A22F400425A620BF046BF54220020FC
:1097000000ED00E015498A684FF030001044EFF397
:10971000098C80E8F01F202080F31288BFF36F8F40
:109720000F4F4FF000664A698A603E60D2F88400AD
:109730000C4C2060D2F888000023C2F8883080F3F7
:10974000118804B5104600F015F9BDE8044002F197
:10975000300090E8F01F8CF30988704754220020F5
:1097600004ED00E0EC1200201EF0040F0CBFEFF33C
:109770000880EFF30980816911F8021C0229FFD0EB
:1097800001B572460DF091FD01BD00BF40B2002849
:1097900007DB044A4109012300F01F00834042F81F
:1097A0002130704700E100E040B200280CDB4309A3
:1097B000064900F01F0020330122824041F8232097
:1097C000BFF34F8FBFF36F8F704700BF00E100E022
:1097D000054B420900F01F0053F82220012303FA31
:1097E00000F01040704700BF00E100E040B20028E8
:1097F000A8BF00F1604001F10101B8BF064B4FEA7C
:109800004111ACBF00F5614000F00F00C9B2B4BF18
:10981000195480F80013704714ED00E0044B054A1A
:1098200023F07F039360BFF34F8FBFF36F8F7047B9
:109830000070020000ED00E008B5FFF7EFFF0B4AF3
:10984000D2F8883023F47003C2F88830EFF3148321
:1098500023F0040383F31488BFF36F8FFFF72AFC10
:10986000FFF734FC00F05CF80AF07CFE00ED00E04D
:1098700042F8203C009B42F81C3C0A49019B42F8FC
:10988000183C029B42F8143C21F001014FF0807318
:1098900042F8043C42F8081C0023203A0265C0F854
:1098A0008830704709830200094A0346906870B106
:1098B00013F1160F406F05D0A0F140029A4205D86F
:1098C000834203D2814228BF0020704700207047A6
:1098D0005422002008B515460C4A0D4B9060D0F874
:1098E00084201A600E4600F045F82C4686F309885D
:1098F0000020044B98472046002100220023024C00
:1099000020470000D7720300098302005422002080
:10991000EC120020014B10221A61704700ED00E0AC
:10992000044800232021C2180133302B82F8001391
:10993000F9D1704700E100E008B5EFF30583064A6E
:10994000103B02EBC30152F8330049688847BDE879
:109950000840FFF757BC00BF90A50300024B034A25
:109960000348012100F08AB8000004200000002014
:10997000F0A90300426F054B403A1A60044A4021A7
:10998000C3E901121846012100F082B8F01200204C
:1099900000000B1508B503461048D0F89020C2F31C
:1099A0000722013A934207D90D480E4A01210DF0D2
:1099B000B0FB6FF0150008BDC0F898300A6822F0BF
:1099C0001F021A4342F01002C0F89C208A6842F03D
:1099D0000102C0F8A0201846EDE700BF00ED00E04E
:1099E0007CA80300AEB70300F0B50E4685B01F4655
:1099F00004460025B5420DDA606810B397B1431EE6
:109A000018420AD0104A11482B4601210DF081FB63
:109A10006FF01502104605B0F0BD1F28F2D921687D
:109A20000B42EFD1236801930DF078FCA36801A9E4
:109A30000343D0B20393FFF7ADFF10F1160FE7D049
:109A4000421C01350C34D5E7D4B703007CA80300D1
:109A5000044B0522C3F89420BFF34F8FBFF36F8FE1
:109A6000704700BF00ED00E0BFF35F8F024B0022A4
:109A7000C3F89420704700BF00ED00E010B5034C20
:109A800001232278FFF7B0FF207010BD972200203D
:109A900008B50B4A00231278FFF7A6FF10F1160F46
:109AA00007D0084A0021D2F89030C3F30723984228
:109AB00000DB08BDC2F89800C2F8A0100130F2E740
:109AC0009722002000ED00E02DE9F0435748584967
:109AD000D0F890300D68C3F307239D4285B000F2A3
:109AE000A180FFF7C1FF49680022954201F10C01F6
:109AF0001AD1504C504F25706846FFF78FFADFF8A7
:109B00003C81DFF83C9106460025AE421FD1237808
:109B100046490020D1F89020C2F3072293427BDB14
:109B2000FFF796FF00204CE0C0F8982051F80C3C5D
:109B300023F01F03134343F01003C0F89C3051F887
:109B4000043C43F00103C0F8A0300132CDE7009897
:109B500000EB05114FEA051CCB683B40B3F5000F45
:109B600044D00AD8B3F5001F2ED0B3F5800F34D0FF
:109B7000B3F5801F10D00135C7E7B3F1807F3ED029
:109B8000B3F1007FF7D150F80C3088684A680DF0C7
:109B9000C5FB40F4802009E050F80C3088684A6822
:109BA0000DF0BCFB40F0885040F43020039001A938
:109BB0002078CDE90123FFF7EDFE002828DA6FF0C9
:109BC000150005B0BDE8F08350F80C3088684A688D
:109BD0000DF0A4FB40EA0800E8E750F80C30886874
:109BE0004A680DF09BFB40EA0900DFE750F80C30B3
:109BF00088684A680DF092FB40F08270D6E750F812
:109C00000C3088684A680DF089FB40F08870CDE719
:109C1000237801332370AEE7C1F89830C1F8A00073
:109C2000013377E74FF0FF30CBE700BF00ED00E0F6
:109C3000FCA90300972200200000F0FF000008119B
:109C400000000206F0B587B007460E461446002114
:109C5000102268461D4610F01EFB02238DF80230CC
:109C60002A46054B019321466846CDE904760CF05F
:109C700071F807B0F0BD00BF3D73030008B5024B9B
:109C80001B689847002008BDFC120020034B044AC3
:109C90001860937843F0020393707047FC12002021
:109CA000B402002008B50649064821F00701C1F1B9
:109CB000005202F580220CF092FC002008BD00BF8B
:109CC000AF6700200013002070B54169867A0B4D04
:109CD000044659B1437ADB0706D42C2303FB065311
:109CE0005B6A1B689B689847002363612C202146B0
:109CF00006FB0050BDE870400FF079BF9C060020C5
:109D0000024B2C2202FB0030704700BF9C06002053
:109D1000827A064B2C2101FB02339A6A1B7F1B338C
:109D2000801A23F00303B0FBF3F070479C06002079
:109D300038B5074B827A2C2404FB02335B6AD3E9E3
:109D400001240C601568FFF7E3FF04FB005038BDE9
:109D50009C0600202DE9F04385B005466846039136
:109D600090461C4610F047F9DDE90067EFF31189D2
:109D7000202383F31288BFF36F8F6B8B002B41D0AE
:109D80002A8B9A4225D90022002328460AF04EFE4B
:109D90000446F0B189F31188BFF36F8F039B002B4A
:109DA00041D032463B46684610F04AF9A27A264B2B
:109DB0002C2101FB023320465B6A1B6803A91D6846
:109DC000DDE90023A847606170BB2046FFF77CFFF8
:109DD00024E0698B4B1E6B8389F31188BFF36F8F6F
:109DE0002B7F2A8BAC6A1B3323F00303521A02FB2E
:109DF0000344154B154AEB1A9B105343A3722B7F58
:109E0000E372CBE789F31188BFF36F8F2346424695
:109E100028460AF00BFE04460028BFD10024204645
:109E200005B0BDE8F0836361012300252381039B16
:109E30006382E27A6560294604F1180010F02BFA7B
:109E400063692582E360EAE79C060020A38B2EBAB3
:109E500070B50D4C2C2500B970BD037A4668002BF7
:109E6000FAD0013BDBB20372002BF5D1C360436033
:109E7000837A05FB03431B6A13B198473046EAE730
:109E8000FFF722FFFAE700BF9C0600200E4A0123DD
:109E9000C2F840354FF080424FF08051C2F878351B
:109EA000D1F83001082808D1D1F83411052904D897
:109EB0000648415C09B1C2F838364FF080430122B0
:109EC000C3F880250020704700E0014024B803005B
:109ED00020B1034B800143F001031847704700BFD6
:109EE00050A903002DE9F04190F8203003F01F0342
:109EF000012B04460F4600F120061BD0022B05D093
:109F000043BB90F821100DF061FF03E0818CC9B2D2
:109F10000DF039FF0546E8B130460DF052FC02461F
:109F200068688368A2B99B684BB13A463146BDE880
:109F3000F0411847818CC9B20DF00CFFEAE76FF0D1
:109F4000850310F02BFA0F4A13500020BDE8F08172
:109F5000DB68E9E794F8211020460DF051FB02463A
:109F60000028ECD030460DF02CFC40B91369002BD2
:109F7000E5D03A463146204698470346E1E7D368A4
:109F8000F5E700BF0C0000002DE9F04F0B7E33F029
:109F9000800893B00446174600F1200940F0718410
:109FA0004A7E02F0010097B117F10C0F0FD088B96B
:109FB00017F1710F03D10846FFF74AFF03E0084687
:109FC000FFF746FFB846404613B0BDE8F08F0028C3
:109FD00000F04084002B40F00E840B8A072B0DD834
:109FE0000846FFF735FF48460DF0EBFB0346A06936
:109FF000002B00F03684802100F03CBCCA68136856
:10A0000023625368C9F804304A68E58C002AE7D017
:10A0100048460DF0D6FB08BB537E15B113F0020F76
:10A0200001E013F0040FDBD000200DF0E7F9054646
:10A030000028D8D010F0B2F994F82020B84E0023B0
:10A0400012F0600F8351C2F341130BD0032B40F089
:10A05000B38110F0A3F96FF0850340E0002DBFD06D
:10A06000537EDBE748460DF0ACFB94F82130002826
:10A0700040F03981013B0A2BEBD801A151F823F0C4
:10A08000CDA1020053A002004FA2020053A0020083
:10A09000ADA0020053A0020053A0020053A0020092
:10A0A0001FA1020053A0020081A10200A069618CDF
:10A0B00003697F29D3F88030CBD8A28C002AC8D17D
:10A0C000E28C002AC5D194F82020D206C1D194F8A0
:10A0D0002C20022A05D110F061F94FF0FF333350E4
:10A0E00013E01B0706D5C9B20DF0A4FB804620B1D2
:10A0F000284661E7012384F8353094F82C30012B91
:10A100000BD1638C4BB984F82C3010F047F93358DD
:10A11000002B00F05683284663E70123F3E720462F
:10A120000DF0E2F9628CFF2A014692D8E38C002BF5
:10A130008FD194F82030D8068BD194F82C30002B96
:10A14000C9D02AB1D2B220460DF029FD0028C2D0D4
:10A15000618C94F834308B42D7D0C9B220460DF0D0
:10A1600025FD80460028C3D1628C002A14BF02233B
:10A17000012384F82C30052120460EF035F8C4E781
:10A1800094F8203003F01F03012B7FF462AFE38CBF
:10A19000002B7FF45EAF628CFF2A3FF65AAFA18C92
:10A1A000FF293FF656AF94F82C30022B93D1D2B250
:10A1B000C9B220460DF00CFF10F1020F804640F0AE
:10A1C000008110F0EBF846F800809EE7E38CA18C4C
:10A1D000002B7FF43EAF94F82C30002B3FF47BAF84
:10A1E000012B0FD100297FF476AF12F01F020CD1A2
:10A1F000638C012B89D194F868306FF3C30384F822
:10A20000683082E712F01F0217D0022A7FF47DAF78
:10A21000B4F822A0BAF1000F7FF477AF5FFA81F8AB
:10A22000414620460DF0C6FF034610F0B7F8335004
:10A23000013306D14FF0FF385AE700297FF44BAFC6
:10A24000D6E75246414620460DF0C1FA5DE7E38C61
:10A25000A18C002B7FF4FDAE638C022B5FFA81F89A
:10A2600013D194F8203003F01F0358EA03037FF45E
:10A27000F0AEA0690122090A0DF0B9FA00287FF4B6
:10A28000E8AE012384F835303FE794F82C0000282D
:10A290003FF421AF01280DD100297FF41CAF12F04B
:10A2A0001F020AD1012B7FF430AF94F8683043F0DD
:10A2B0000803A4E712F01F0211D0022A7FF425AF91
:10A2C000002B7FF422AF414620460DF05EFF03468F
:10A2D00010F064F833500133ACD00122B2E700290A
:10A2E0007FF4F9AEDEE70A2B3FF6B3AE01A151F8D9
:10A2F00023F000BF25A3020053A0020053A00200D8
:10A3000053A0020053A0020053A00200A5A3020024
:10A3100053A002005BA7020053A0020089A702001D
:10A320000C000000E38CA18C022B7FF492AE94F819
:10A330002C30002B3FF4CFAE012B10D100297FF43D
:10A34000CAAE12F01F020DD194F868304FEA93089C
:10A3500008F00208C3F3001348EA030806E012F00D
:10A360001F0210D0022A12D04FF0000805F10C0A8B
:10A3700050460DF0A8F8E38C98420ED210F00EF87B
:10A380006FF00B03ABE600297FF4A5AEDCE7C9B2A2
:10A3900020460DF01EFF8046E8E7414650460DF08E
:10A3A00054F8B2E694F82020B4F822A0D2064FEA7E
:10A3B0001A235FFA8AFA09D029462046FFF792FD50
:10A3C0008046B8F1000F7FF493AE9EE6013B0E2B62
:10A3D0003FF63FAE01A252F823F000BF19A40200DD
:10A3E00063A402001BA5020053A0020053A00200B8
:10A3F00013A5020013A5020053A0020053A00200FF
:10A4000053A0020053A0020053A0020053A0020078
:10A4100053A0020063A6020005F10C0A5046B4F8EE
:10A4200026800DF050F880450AD2B4F826802046E8
:10A430000DF05AF848B101287FF40BAE216F05E00A
:10A4400050460DF040F88046F1E7E16E002900F03B
:10A4500013810A78424528BF424650460CF0E4FF7B
:10A4600053E620460DF040F80AF101020190014642
:10A47000D2B220460DF06DFB824600283FF4E9ADD4
:10A4800005F10C08D0F804B040460DF01CF89BF81C
:10A490000020904203D240460DF015F8024659467E
:10A4A00040460CF0C1FFDAF80CA0BAF1000F09D158
:10A4B000298AE38C99427FF628AEC91A40460CF0EF
:10A4C000CEFF22E6DAF8040083681B6B13B9DAF8D2
:10A4D00000A0EAE7019998470028F8D0A0F1040B02
:10A4E0005BF8043F002BF2D01B78002BEFD04046E6
:10A4F0000CF0E9FFDBF800301A78904203D24046B6
:10A500000CF0E1FF82B2DBF8001040460CF08CFF4B
:10A51000E6E720460CF0E8FF9BE552460321204683
:10A520000DF0ADF8824600283FF493AD0DF044F9EC
:10A53000B4F826B0E0B9BAF81430ADF82830DAF83B
:10A54000103005F10C081B88ADF82A3040460CF09D
:10A55000BAFF834508D2E08C9DF82820824228BFAC
:10A5600002460AA9404679E740460CF0ACFFF3E703
:10A5700000238DF814309AF81530DAF808208DF899
:10A580001530C24B1340C24A934258D1102106A83D
:10A590000EF087FE0028FFF65CAD0AAA1028DFF84F
:10A5A000F4E20DF1180C114628BF1020404502F1CD
:10A5B000020233D8800002308DF81400019105F1B9
:10A5C0000C0A50460CF07FFF9DF81480D84528BF38
:10A5D000D846404503D250460CF075FF8046B8F18E
:10A5E000020FC34628BF4FF0020B5A4605A950463A
:10A5F0000CF01AFFA8EB0B08DDF804B04FEA580383
:10A600000BEB58025A4522D118F0010F3FF47DADF3
:10A61000019AD15C50460CF010FF76E51CF8013B26
:10A620004FEA131A03F00F031EF80AA01EF80330B6
:10A6300002F802AC02F8013C08F10108B6E79AF80A
:10A6400014308DF81430DAF810300193B7E71BF8A6
:10A65000011B5046CDE902320CF0F7FEDDE9023273
:10A66000D0E720460CF040FF20B101287FF4F1AC88
:10A67000236F00E0E36E13B96FF0150838E55B88CF
:10A68000B3F5007F7FF6E5AC834B0A9300238DF88A
:10A690002C30A36C04F1480A9A455BD105F10C0BF0
:10A6A00058460CF010FFBDF82A80E38C984528BF6F
:10A6B0009846404503D258460CF005FF80469DF869
:10A6C0002820424528BF42460AA958460CF0ACFE55
:10A6D000B8F1050F94BFA8EB0808A8F10508B8F178
:10A6E000000F3FF412ADA36C53453FF40EAD002BA9
:10A6F0003FF40BAD5A7D0F2A14D11A7D19690193CD
:10A70000424528BF424658460CF08EFE019B1A7DFA
:10A71000424594BFA8EB0208A8EB0808B8F1000F67
:10A720003FF4F3ACE26C9A423FF4EFAC1B68DEE717
:10A730005A7D0F2A0AD11A7DBDF82A100A44ADF8B5
:10A740002A209DF82C2001328DF82C20E26C9342B7
:10A75000A4D01B68002BEBD1A0E794F82C3094F820
:10A7600034A0002B3FF4B7ACE38C012B7FF471AC29
:10A7700005F10C0840460CF0A6FEE38C9842FFF46D
:10A78000FDAD5146404646E794F8203003F01F03E4
:10A79000012B7FF4A0AC20460DF0EFF900283FF428
:10A7A0009AACA38C4268FF2B3FF653AC12799A42C5
:10A7B000FFF44FAC0F2B3FF64CAC234493F836A07C
:10A7C000D2E70123A36248460CF0FBFF60B9E38C9B
:10A7D00053B1294600200CF011FE054600283FF435
:10A7E00002AC6B7E5E07F4D52946204613B0BDE867
:10A7F000F04F0DF06ABC50077FF5F5AB802B7FF46E
:10A80000F2AB0846FFF724FBA36A012B7FF4DBAB16
:10A8100094F83530002B3FF4D6AB94F82130052B5B
:10A8200005D1618CA069C9B20DF004F8804694F896
:10A830002130032B09D1638C022B06D1A18CA06996
:10A840000022090A0CF0D3FF8046002384F835303B
:10A85000FFF7B9BB52077FF5C6AB002B3FF4ABAB9C
:10A86000CCE7E38C002B3FF4C6AB17F10C0118BF0B
:10A870000121C9010EF00AFA00238046A362FFF706
:10A88000A2BB6FF00408FFF79EBB00BF00FF0200F1
:10A89000000302002EB80300050F05000248002245
:10A8A00000230FF0BAB800BF300600202DE9FF41A9
:10A8B000514F4FF0FF334FF0FF3201A9384609F0F6
:10A8C00089FF039B1B69D3F89C409DF80430072B3C
:10A8D000EFD8DFE803F00A041A0D2C277B8D002245
:10A8E000012120460DF080FCE3E700221146F8E745
:10A8F00094F8683043F0040301A984F868302046D6
:10A900000CF0BAFF00220321EBE794F868306FF3F4
:10A91000820301A984F8683020460CF0ADFF0022C4
:10A920000221DEE701A920460CF0A6FFC1E794F85A
:10A930006830A6696FF3820384F868303369D6F80B
:10A940000880BFF35B8FD3F8A030BFF35B8F99070C
:10A95000C3F3400208D4042120460DF045FC4FF01B
:10A96000FF352A460721BCE7D8F83C3030469847E7
:10A97000D8F82430002130469847D8F840300546B2
:10A9800030469847E5B9294620460DF00FF90546AF
:10A99000B0B9802120460DF0F5FBA0690EF00AFA4F
:10A9A000831E5842584194F8683084F82C5023F0A4
:10A9B000680343EA401384F868302A46042190E78C
:10A9C0000022042120460DF00FFCCAE702990B7EFD
:10A9D000D1F81E2013F07F0F204606D1FFF7D4FADE
:10A9E000054600283FF465AFBBE70DF0C3F9F7E774
:10A9F000029A062175E700BF3006002030B589B005
:10AA000000220023CDE9062300246FF00703CDE9DF
:10AA10000334CDE901441A4B1A4900944FF4806283
:10AA200019480AF0E7FA194917480FF081F9184B4D
:10AA300018498B4207D3184B184900208B4210D37A
:10AA4000002009B030BD03F11402BFF35B8F52E860
:10AA5000000F42E80045002DF9D1BFF35B8F18339A
:10AA6000E7E703F11402BFF35B8F52E8004F42E8BF
:10AA70000005002DF9D1BFF35B8F1833DEE700BF6F
:10AA8000ADA80200C0260020E00C00203FB8030063
:10AA9000EC0700200408002004080020040800201F
:10AAA00038B502460949054680690EF0EAF90446C0
:10AAB00048B985F8340028460CF04FFF044610B121
:10AAC000A8690EF011FA204638BD00BF9DA802000B
:10AAD00070B5084C084E0546B44202D30024204607
:10AAE00070BD636828461968FCF724FB0028F6D07F
:10AAF0001834F1E7EC0700200408002070B5064682
:10AB0000EFF31181202282F31288BFF36F8F1D4C67
:10AB1000236881F31188BFF36F8F5B6893F8683007
:10AB2000DB0705D4BDE87040212200230AF00CBAEF
:10AB3000EFF3118382F31288BFF36F8F256865B935
:10AB400083F31188BFF36F8F2368D3B1304600229F
:10AB5000BDE8704000230AF0C3B961682A6822602A
:10AB60008D4208BF626083F31188BFF36F8F6868FE
:10AB700005F10801C3699847034829460EF0FDFE18
:10AB8000E2E770BD0C1300200006002030B585B050
:10AB90006C4684E80600054600221548002303A9F8
:10ABA00009F07AFD0246E8B9039B94E803005D6072
:10ABB000083383E80300EFF31180202383F3128826
:10ABC000BFF36F8F039B1A600A4A516861B9C2E9EB
:10ABD000003380F31188BFF36F8F074800220023F2
:10ABE0000AF07EF905B030BD0B605360F1E700BF9D
:10ABF000000600200C1300200000002038B54B7820
:10AC0000046945682069202B08D0222B19D00FF049
:10AC1000C5FB114B6FF085021A5010E0CB88072B53
:10AC2000F5D1D3681A6842609A8802819B79837251
:10AC30000DF0FBFA2246082128460DF0E3FA002029
:10AC400038BD4B888381C3F3400203F001030276D1
:10AC5000437622460921EFE70C00000008B51346B1
:10AC6000026910694A78212A13D133B90FF096FB93
:10AC70000B4B6FF00B021A5009E0CA88072A00F14B
:10AC8000040128BF072203F10C000CF0CDFB0020CB
:10AC900008BD0FF083FB024B6FF08502EBE700BFAE
:10ACA0000C00000073B504698DF807102025EFF340
:10ACB000118685F31288BFF36F8F0122E06B0DF1CF
:10ACC00007010CF036F986F31188BFF36F8F012866
:10ACD00012D00FF027F808B9A37EABB90D4BBFF324
:10ACE0005B8F012253E8001F002903D143E80020B5
:10ACF0000028F7D1BFF35B8F2122002304F1480025
:10AD00000AF0EEF802B070BD002121200FF0C8F863
:10AD1000CDE700BF1413002038B505690E49EB6B71
:10AD20000024C3E90144DC606B6B05F14800C3E912
:10AD30000144DC600EF0EAFF05F1780007490EF0EF
:10AD4000B3FF074905F124000EF0AEFF28460DF0D1
:10AD50006CFA204638BD00BFFF830300A7850300BF
:10AD6000338603000E4B402970B528BF40210D4C9F
:10AD700046181D46B04203F1020304D1002305F832
:10AD80001130074870BD02781209A25C03F8022C4A
:10AD900010F8012B02F00F02A25C03F8012CE9E786
:10ADA000B6220020AFB8030030B503788BB004465C
:10ADB00007AD032B21D8DFE803F0021A1C1E12494D
:10ADC0002846FCF7C1F9059563780493A3780393AB
:10ADD000E37802932379019363790093A3790B4A73
:10ADE0000B481E210AF08CFF09480BB030BD094901
:10ADF000E6E70949E4E70949E2E7094A0A21284662
:10AE00000AF07EFFDFE700BF6AB803008CB80300DA
:10AE10009822002071B8030078B8030082B80300BC
:10AE2000C4AF030008B50DF0FBFC0AF0B3FA044B05
:10AE30001B680BB10A209847BDE808400AF0BEBA6B
:10AE40001813002038B5044608480CF088FA054667
:10AE500048B1631EDBB21F2B96BF054A0021D15CAF
:10AE60000C300CF0EAFA284638BD00BFF40600208A
:10AE7000C0B803000E38012810B50AD809480CF0F4
:10AE80006EFA044618B104210C300CF0D6FA2046B4
:10AE900010BD09B10448F2E7BDE810400220FFF7F9
:10AEA000D1BF00BF200700209C060020F0B505465A
:10AEB00085B00E461746AB88012B0ED928460CF0FC
:10AEC000F6FA044648B1AB88984208D90E4A009376
:10AED000022103460D480CF026F905B0F0BD2846C6
:10AEE0000CF0E5FA013C2B688DF80800394602A801
:10AEF0008DF809400393B0470028EED0214628463C
:10AF00000CF0C5FAD7E700BFE7B8030024A8030098
:10AF100010B501210C300CF0C2FABDE810400378E6
:10AF2000024A034801210DF093BC00BF12B903008F
:10AF30002CA8030010B5094BD3F80C3163B10849B4
:10AF400008480EF0CDFE031E06DABDE81040064AA2
:10AF5000064801210DF07CBC10BD00BFD8000020C8
:10AF600070030020700D002034B903002CA80300EA
:10AF7000B0B50B460D8A00AF04462946D868FFF7E6
:10AF8000F1FE8AB06A46094BC2E9053440F2024339
:10AF90009384074BC2E907504FF4325142F8103FF7
:10AFA00004480DF066FCBD46B0BD00BF51B90300BA
:10AFB000050000012CA8030037B502EBC3030446CB
:10AFC00008469A4202D16FF05E0010E0114611F877
:10AFD000085BA54211D1038A5178994209D90848E2
:10AFE000084A009401210CF09EF86FF0150003B0A0
:10AFF00030BD536898470020F9E70A46E1E700BFF3
:10B000002CA8030073B9030010B5012104460C30CD
:10B010000CF045FA2146034A0078BDE810400023B1
:10B020000DF02ABCC8AA030010B5012104460C305B
:10B030000CF035FA2146034A0078BDE810400123A0
:10B040000DF01ABCE0AA0300F8B5012100AF0446D8
:10B050000C300CF024FA0678114A002321463046C1
:10B06000FFF7AAFF5F3018D1258AE0682946FFF76D
:10B0700079FE6C468AB06A460A4BC2E9053640F250
:10B0800002439384084BC2E907504FF4325142F80F
:10B09000103F06480DF0EDFBA546BD46F8BD00BFCC
:10B0A000E8AA030095B90300050000012CA80300DD
:10B0B0002DE9F74FDFF81CA1BFF35B8F804689466F
:10B0C000174600235AE8004F4AE80032002AF9D117
:10B0D000BFF35B8F264644B93F4A404843460121AF
:10B0E00003B0BDE8F04F0DF0B3BB2046FEF710FEF5
:10B0F0003B4D4FF00C0B0BFB0050438843451FD0DA
:10B100002046FEF705FE0BFB00504388354A0093AE
:10B110003248434601210CF006F8BFF35B8F5AE832
:10B12000003F4AE80062002AF9D1BFF35B8F002B91
:10B130004DD01E46304603B0BDE8F04FFEF788BE46
:10B14000A74208D020460CF005F93A8AF96804F1C4
:10B150000C000CF069F92046FEF7DAFD0C2707FB1E
:10B1600000504368ABB1B9F1000F12D12046FEF791
:10B17000CFFD07FB005001214268D2E90003127A9B
:10B1800003F01F07B9405B09DAB100EB83000DF053
:10B1900061FB2046FEF7BCFD0C2707FB00508368CF
:10B1A000002BC7D02046FEF7B3FD784305F800908A
:10B1B0002046FEF7ADFD07FB0055A86809F068FCC6
:10B1C000B8E7C94300EB83000DF064FBE1E703B08F
:10B1D000BDE8F08FE0010020C7B903002CA80300F0
:10B1E0001C130020EFB9030008B501F04FF9BFF3BD
:10B1F0005B8F084B1A68BFF35B8F02F00B02BFF343
:10B200005B8F53E8001F43E800200028F9D1BFF30B
:10B210005B8F08BDAC0100202DE9F8430C460AF015
:10B22000B9F8E168238A0A78042A7BD1022B0DD869
:10B23000424A434801210DF00BFB2046FEF708FE71
:10B2400000240AF0BBF82046BDE8F8834A783E2A7D
:10B250000AD1032B01D13B4AEBE7CB78012B01D07C
:10B260000A2B49D1032705E0052AFBD00E3A012A13
:10B2700042D8012704F10C0630460CF020F90121D8
:10B2800005463046B4F810900CF001F90221304622
:10B290000CF005F903783E2B804607D1E3681B7854
:10B2A000012B01D00A2B06D1032614E0052BFBD07D
:10B2B0000E3B012B30D9244A2449254841F2F3039F
:10B2C0000BF031FA002383F31188BFF36F8F032350
:10B2D000184602DF02261F4A98F800000323214681
:10B2E0000DF0CAFAB20719D56369A4F8109013FAE1
:10B2F00085F5E560BB07A3D5174821460CF033F868
:10B30000164917480EF0ECFC031E99DA154A0C4852
:10B3100001210DF09DFA93E70126DCE72046FEF7B8
:10B3200097FDE7E7134606480F4A01210DF090FA12
:10B330002046FEF78DFD6FF0150482E722BA030068
:10B340002CA803003EBA03005EBA030092BA0300C1
:10B35000ABBA0300B0AA0300E40100207003002090
:10B36000700D002034B90300C8BA030038B51C487A
:10B370000CF00EF8044690B300F10C0528460CF0D2
:10B3800096F80428034624D1284602210CF087F8B9
:10B3900003780E3B012B05460ED8124A124913487A
:10B3A00040F663430BF0BFF9002383F31188BFF32A
:10B3B0006F8F0323184602DF0D4A287803232146A6
:10B3C0000DF05AFA2046FEF743FDBDE83840FFF77E
:10B3D000B1BD084A084801210DF03AFAF2E738BD3C
:10B3E000E40100205EBA0300DCBA0300ABBA03003C
:10B3F000C8AA03000ABB03002CA8030010B5C1E9CA
:10B4000000239DF808300B720C46FEF781FC034BBD
:10B410000C2202FB00335C6010BD00BF1C13002037
:10B42000F8B502460B4610480BF099FF0446C0B130
:10B4300004210C300BF0EEFF2046FEF769FC0B4DAB
:10B440000C2707FB0050002646802046FEF760FCD4
:10B4500007FB005086602046FEF75AFC07FB0055AC
:10B460006E602046F8BD00BFC80600201C130020F7
:10B4700010B592B004460749442201A80EF0FDFE23
:10B48000102C9BBF12AB03EB8404034854F8440C0C
:10B4900012B010BDF0A803001EBB0300034B014611
:10B4A000D3F82C0182689268104700BFD8000020B2
:10B4B0002DE9F84F042100AF46480DF0CBF96D4659
:10B4C00000F0E4FF88B06A46434B5361434B9361FD
:10B4D0004FF400739383424C424B42F8103F4FF4B9
:10B4E000E6514148414E0DF0C4F9414BE279AD4679
:10B4F0002046012A88BF1E46FFF756FC8AB06A46DE
:10B500003C4BD061C2E905363B4B13623B4B42F8E2
:10B51000103F35483A4EDFF8EC80DFF8CC904FF41E
:10B5200023510DF0A6F9A346AD460125E3799D42CE
:10B530000BF1070B38DB94F870502846FFF798FFA3
:10B540006E468CB0B4F87210B4F876306A46DFF804
:10B55000B8C05362C2E907512C4B4FF40075C2E9E1
:10B5600005C015854FF4535142F8103F1E480DF0A9
:10B5700080F9B54694F871603046FFF779FF8AB0DC
:10B58000B4F874306A4622499584C2E90763214BB6
:10B59000C2E9051042F8103F13484FF433510DF043
:10B5A00068F9BD46BDE8F88F5846FFF7FDFBEA464F
:10B5B0008AB06A4640F20133C2E90565D06113845E
:10B5C0004FF4135142F8108F48460DF052F90135EF
:10B5D000D546ABE7AC0100202ABB03003CBB03000F
:10B5E000D8000020030000012CA80300BFB2030014
:10B5F00026BB030047BB0300000201030400000256
:10B6000056BB03000400000167BB030006000001F5
:10B61000A5BB030005000001014809F0F1BB00BF14
:10B620006003002070B505460C4659B94FF0FF3055
:10B630004FF0FF31FFF7F4FE044618B96FF06805CC
:10B64000284670BD2046FEF763FB194B0C2202FB17
:10B650000033A61830465D800BF031FF03280BD96C
:10B66000032130460BF002FF0580238A033B8370E1
:10B67000012130460BF002FF40F635439D420FD1C9
:10B680002046FFF70BFF05460028D9D00346094A9C
:10B69000094801210DF0DCF82046FEF7D9FBCFE781
:10B6A000064821460EF098FA0025FFF7B5FFC7E7D8
:10B6B0001C130020CCBB03002CA80300EC010020CD
:10B6C00038B502460B462B4DD5F8141109B90020A8
:10B6D00038BD05F1F00009F015FA0028F7D1002275
:10B6E000002305F58A7009F0A1F9044668B9224AD9
:10B6F0002249234840F673430BF015F884F3118870
:10B70000BFF36F8F0323184602DFD5F808315BB112
:10B710001C4A1D4801210BF0F3FCD5F80801FEF787
:10B7200097FB0023C5F8083120460BF047FEC5F80B
:10B7300008012046FFF7B2FE0346C8B1134A12487B
:10B7400001210DF085F8124809F0A2F92046FEF714
:10B75000DFFA104B0C2202FB0033588818B1224646
:10B760001F21FFF7A5FC2046FEF772FBFFF754FFF1
:10B770000120ADE7D80000205EBA0300E3B8030063
:10B78000ABBA0300EEBB03002CA80300CCBB030044
:10B79000C80100201C1300202DE9F04F87B0064699
:10B7A00000AF90460C4671B94FF0FF304FF0FF31BB
:10B7B000FFF736FE044668B96FF0680528461C3767
:10B7C000BD46BDE8F08F887AFEF79AFA524B834265
:10B7D00040F09C800122002138460EF016FA2046E7
:10B7E000FEF796FADFF834B10C2303FB00B0876054
:10B7F00020460BF0E3FD01463046FFF713FF0546F8
:10B8000018B12046FEF724FBD8E70EF0C7FD444BE5
:10B810001A58444B9A421ED143480EF0F2F90021C7
:10B8200082464FF4A020FFF74BFF814688B93F4A7C
:10B830003F4940484FF4F9730AF075FF3E483146DE
:10B840000AF071FF89F31188BFF36F8F0323184645
:10B8500002DF5445E0D14FF4A0220023384609F01E
:10B8600051F9814698B14FF4FC73304A334931485D
:10B870000AF059FF32484A4631460AF054FF002385
:10B8800083F31188BFF36F8F0323184602DF20462E
:10B89000FEF73EFA0C2358431BF80090B9F1000F55
:10B8A0002DD06D468AB06A46264BC2F81C90C2E97C
:10B8B0000536254B136240F202439384234B42F832
:10B8C000103F23484FF432510CF0D3FF2046AD46D1
:10B8D000A9F10909FEF7BCFAB9F1090F0CD8DFE8A4
:10B8E00009F0180B0B08050B0B0B0B156FF00B0574
:10B8F00064E76FF00C0561E76FF004055EE7B8F1EF
:10B90000000F3FF47EAFC8F8004057E76FF0150511
:10B9100054E76FF06E0551E7C80600201C130020A5
:10B920000800000040110020EC0100205EBA030076
:10B9300009BC0300ABBA030011BC030031BC030017
:10B940003ABC03007FBC0300BFB203000500000146
:10B950002CA803002DE9F041002282B0114600AF6F
:10B9600040F60340FFF718FF044600285BD1FFF7BD
:10B970003BFC21463A1D41F20300FFF70DFF044650
:10B98000002850D17A68BD4DD168D1F80100D1F8B6
:10B99000051005F1780303C31046FEF759FA214656
:10B9A0003A1D41F20100FFF7F7FE044600283AD1A4
:10B9B0007868C3685A7885F870205A88A5F872208C
:10B9C0001A7985F87120B3F80720A5F87420B3F828
:10B9D0000530A5F87630FEF73BFA21463A1D41F2D4
:10B9E0000200FFF7D9FE0446E8B9D7F804C0DCF836
:10B9F0000C2005F18006531C413218685968344602
:10BA000003C4083393422646F7D16046FEF720FA76
:10BA100095F87C3058060BD4994A9A4801210BF0CE
:10BA20006FFB6FF0120420460837BD46BDE8F08179
:10BA30003A1D002142F20300FFF7AEFE0446002843
:10BA4000F1D17A68904BD168D1F80100D1F8051096
:10BA500003C31046FEF7FCF995F87C30990618D41C
:10BA60004FF0FF304FF0FF31FFF7DAFC06460028B9
:10BA70004CD002210C300BF0D1FC01234470037038
:10BA80002246314640F66D40FFF786FE0446002808
:10BA9000C9D195F89C301A0712D53A1D002142F2FF
:10BAA0001C00FFF779FE04460028BCD17868C36803
:10BAB000D3F80120D3F80530C5E93823FEF7C8F9DB
:10BAC0004FF0FF304FF0FF31FFF7AAFC0446E8B11A
:10BAD00008210C300BF0A2FC0226002206704270F6
:10BAE0008270C270027142718271C271214642F24B
:10BAF0000100FFF751FE0446002894D14FF0FF30BB
:10BB00004FF0FF31FFF78CFC804610B96FF06804EE
:10BB100089E708210C300BF081FC8023437020233F
:10BB200004708470047144718471C670C3712246BC
:10BB3000414640F60140FFF72FFE044600287FF4FF
:10BB400072AF01463A1D4FF60140FFF725FE40B1A6
:10BB50004E4A4C4802210BF0D3FA00F047FB044652
:10BB600061E77B68DC68B4F80130032B96BF484A74
:10BB7000484952F823106E468AB06A464648D36157
:10BB80004FF400731384454BC2E9050142F8103F9E
:10BB90003C484FF413510CF06CFEB4F80120B4F89B
:10BBA0000330022AB54649D1052B47D83C4A52F802
:10BBB00023106E468AB06A463A48D3614FF4007348
:10BBC0001384364BC2E9050142F8103F4FF413517C
:10BBD0002C480CF04EFE637994F806C0D4F80900A6
:10BBE000032BB54698BF304AB4F8076094BF52F8AB
:10BBF000231028496C468CB06A46DFF8B0E0C2E9F1
:10BC0000073C4FF400739385294BC2E905E1C2E973
:10BC100009604FF4735142F8103F1A480CF029FEA6
:10BC2000A5467868FEF714F93A1D00214FF6024048
:10BC3000FFF7B2FD044618B11E4A8AE71549B8E776
:10BC40007868C368B3F80130A5F8C130FEF700F991
:10BC500095F8C1305B0780D53A1D21464FF6034069
:10BC6000FFF79AFD08B1144A73E77868C3685B78F8
:10BC700085F8C030FEF7ECF86FE700BFD800002071
:10BC80009EBC03002CA80300B0010020C2BC03002E
:10BC9000A0AA03001EBB0300E6BC030004000001D1
:10BCA00088AA0300FFBC030078AA030017BD0300A5
:10BCB0000700000144BD03006DBD030073B52C4DAA
:10BCC0000646D5F82C010DF0C5FD48B9294A2A4889
:10BCD00001210BF015FA6FF01204204602B070BD7E
:10BCE0006FF0020105F1D4000CF0D4FD01210CF03D
:10BCF000B1FD10EA010437D1204B1E600A4605F160
:10BD0000F0000DF082FF05F58A700DF026FF1C484B
:10BD10000DF0F6FF1B491A4800946FF007034FF42B
:10BD2000966209F073F8184915480EF001F8D5F835
:10BD30002C01164983681B689847044630B10346B6
:10BD4000134A0D4801210CF083FDC6E73EB9FFF709
:10BD500001FE04460028C0D1FFF7AAFBBDE705F1AC
:10BD6000C40009F04DF8B8E76FF07704B5E700BFFD
:10BD7000D800002096BD03002CA803002813002043
:10BD8000700D0020002B0020AEBD030019B2020090
:10BD9000B7BD030010B5FFF7DDFD044608B9FFF796
:10BDA00087FB044B1B681BB12046BDE810401847B9
:10BDB00010BD00BF2813002038B5042104460C3004
:10BDC0000BF06DFB034640885D7818B11978224668
:10BDD000FFF76EF935B1044808F05AFEBDE8384067
:10BDE000FFF71ABC38BD00BFC8010020B0B5032161
:10BDF000044600AF0C300BF052FBE3680578B0F856
:10BE00000100197840F63543984215D16C468AB046
:10BE10006A460F4B0F48C2E905310F4BD36140F220
:10BE2000013313840D4B42F8103F4FF412510CF0C4
:10BE300020FDA546BD46B0BD10B12246FFF738F93A
:10BE4000002DF7D0064808F023FEFFF7E5FBF1E7E9
:10BE5000D3BD03002CA80300BFB2030004000001FF
:10BE6000C801002070B54FF0FF320D464FF0FF3390
:10BE700000210646FEF7FEFF044660B90A4A0B4958
:10BE80000B481A230AF04FFC84F31188BFF36F8F1D
:10BE90000323184602DF022104F10C000BF0BEFA66
:10BEA00006704570204670BD1ABF0300E3B803005A
:10BEB000ABBA0300F8B50A4DEF7906460024E3B2A9
:10BEC0009F4202D86FF0010007E0294630460CF08F
:10BED0001CFD0735631C08B12046F8BD1C46EEE783
:10BEE000D800002070B51A4E0622314605460EF0E5
:10BEF000DAF938B34FF0FF304FF0FF31FFF790FA27
:10BF0000044608B3062229460C300BF08DFA214670
:10BF1000002242F20500FFF73FFC044648B110F151
:10BF20000D0F04D10B4A0C4802210CF0F6FC204600
:10BF300070BD33462A6843F86929AA88B280012275
:10BF400083F868200024F2E76FF06804EFE700BF91
:10BF50004101002050BF030034A8030037B5044658
:10BF60000D4689B1184928460CF0CFFC60B9174A34
:10BF70002968C4EBC404A3181151AA889A80AA792D
:10BF80009A71002003B030BD68460CF02CFC0028EC
:10BF9000F8D16846FFF78EFF0028F5DA0B4A0098C3
:10BFA0009DF80610C4EBC404A3181051BDF804009A
:10BFB00098809971002DE4D012592A609A88AA803D
:10BFC0009B79AB71DDE700BF57B80300D8000020B4
:10BFD00070B50446B1B9C0B120490CF096FCA0B9C7
:10BFE0002046FFF767FF002831DA2378012B04D1C0
:10BFF000A37903F0C003C02B07D0194A19480121C7
:10C000000CF08BFC6FF0150070BD174DEB79012B18
:10C0100020D0BFF35B8FD5F8D430BFF35B8FDB0745
:10C0200007D4002CEED00D4920460CF06EFC002801
:10C03000E8D1EE792146731C3046EB71FFF78EFF95
:10C0400008B93046E0E7EB79013BEB71DCE76FF0D4
:10C050007700D9E76FF00B00D6E700BF57B80300B1
:10C060005FBF030034A80300D80000202DE9F3418E
:10C07000044640B91A4A1B4802210CF04EFC00202D
:10C0800002B0BDE8F08101AA002141F20900FFF7EA
:10C0900083FB054608B1144AEDE7019E1349D6F823
:10C0A0000C8008F10107062238460EF0FCF828B192
:10C0B0000F49062238460EF0F6F818B93046FDF75B
:10C0C000C7FEDCE7D8F80130C4F80130BB88A4F81B
:10C0D000053030462570FDF7BBFE0120D0E700BFDC
:10C0E0008DBF030034A80300A6BF030064B803009B
:10C0F0005EB8030007B56846FFF7B8FF044BD87178
:10C1000018B169460020FFF729FF03B05DF804FB72
:10C11000D8000020F0B5304DEC7989B0002C53D117
:10C1200095F8C26016F0010610D12C4A2C48022165
:10C130000CF0F3FBEC71162600240127EB79E0B23A
:10C1400098422CD3002B3FD000203BE06A4621468A
:10C150004FF60940FFF720FB08B1224AE6E7DDF879
:10C1600000C0DCF80C104B7823B96046FDF770FE78
:10C170001D4ADBE78B1C02AA01F1120418685968FA
:10C18000174603C70833A3423A46F7D11868386008
:10C190009B88BB806046FDF75BFE3446CAE708AB70
:10C1A00006FB0033694653F8182C33F8143CCDF8DD
:10C1B0000120ADF805308DF80070FFF7CFFE013497
:10C1C0000028BBD009B0F0BD0021084609B0BDE889
:10C1D000F040FFF7FDBE00BFD8000020C4BF030041
:10C1E00034A80300F0BF030010C0030038B5104DA1
:10C1F000EB7913B10024204638BDFFF77BFF0446DE
:10C2000028B10C4A0C4801210CF087FBF3E7EB79CD
:10C21000002BEFD1FFF77EFF04460028F1D1681C08
:10C22000FFF760FE04460028E5D0044AEAE700BFB5
:10C23000D800002039C0030034A8030058C0030010
:10C2400070B5054686B00E464FF0FF304FF0FF3117
:10C25000FFF7E6F80446A0B102210C300BF0DEF83F
:10C26000094A4670057003A9204600950523FFF78B
:10C27000C5F80022214642F20C00FFF78DFA06B005
:10C2800070BD6FF06800FAE7AC01002008B50C4BF8
:10C290000246400903EB80000CF06BFB02F01F0329
:10C2A00040FA03F313F0010006D122B905480CF05F
:10C2B00060FB40F3C01008BD6FF07700FBE700BFE4
:10C2C0002C130020AC0100200A4ABFF35B8F430906
:10C2D00002EB830200F01F0001238340DB4352E89E
:10C2E000000F184042E800010029F8D1BFF35B8F2E
:10C2F000704700BF2C13002030B587B05D48002286
:10C30000002308F0CBFA002840F092805A485A4D9A
:10C310000CF02FFB10F0010345D02B1D93E8070014
:10C3200006AB03E9070055480CF023FBC0F34013AC
:10C3300051480CF01EFB014600286BD073B10C2253
:10C340004F490DEB02000DF0AEFF00286BD000212D
:10C350000846FFF775FF0446002865D100239DF8C5
:10C360000C00ADF80930BDF80E30ADF80530BDF861
:10C370001030ADF80730431E8DF8040058420DF11F
:10C38000090158410CF0E8FA044600284CD14FF05E
:10C39000FF304FF0FF31FFF743F80546002849D141
:10C3A0006FF0680440E03548364A0CF0E2FA10F0CD
:10C3B000800F0ED09089D1891269ADF80E004FF42C
:10C3C0008074ADF80C40ADF81010ADF81230059245
:10C3D000A9E72D4C2068616803AB03C3A06818600F
:10C3E00092F8D930180748BF0523234848BF8DF875
:10C3F0000D300CF0BEFA810706D53023ADF81030B1
:10C400006023ADF80E308EE71B480CF0B2FA4207FD
:10C41000F3D488E73BB1FFF713FF044620B9184B6C
:10C420002861C3E901000024124808F0AFFA204651
:10C4300007B030BD072201A90C300AF0F5FF2246F3
:10C44000294642F20B00FFF7A7F904460028EBD17A
:10C450009DF80D10012001F00101FFF7F1FE0446E7
:10C460000028E1D106AA12E90700054B83E807007E
:10C47000D9E700BF481300202C130020AC01002096
:10C480003C130020D80000203CA9030010B5094C43
:10C490004422002120460DF0FEFE04F11C000DF0A8
:10C4A000CBFA04F130000DF0C7FA034B00221A60FA
:10C4B00010BD00BF2C13002078130020032838B5CE
:10C4C000054603D1BDE83840FFF716BFFFF7DEFE93
:10C4D0000446C8B9BFF35B8F0C4B6A0903EB8203B8
:10C4E00005F01F0101228A4053E8000F104343E882
:10C4F00000010029F8D1BFF35B8FFFF7FDFE044672
:10C5000010B12846FFF7E0FE204638BD2C1300206E
:10C510002DE9F04F00F10C068BB0044630460AF0CE
:10C52000C6FF80466348DFF890A10CF022FA00F0C5
:10C530000103604802930CF01CFAC0F380030193DE
:10C54000B8F1000F02D10BB0BDE8F08F029B13B918
:10C55000019B002BF7D0238A082B07D8574A58484D
:10C5600001210BB0BDE8F04F0AF0CABD09213046E9
:10C570000AF095FF037A228A01339A420546EDD3E9
:10C580000123ADF824307F238DF81E30037A034455
:10C59000471C5B7A8DF81D30FF238DF81C3000237B
:10C5A000ADF8223002788DF81F20042A9CBF454B3D
:10C5B0009B5CADF82030037A3E4800930CF0D9F92B
:10C5C00003463C480CF0D5F9DA0703D5BDF8203016
:10C5D0005B0765D438460CF01FF900284AD039466D
:10C5E00004A80CF00EF9DAF80030B3B130460AF0C6
:10C5F00066FF009BB4F810B0DAF800702382814621
:10C6000033469DF81F209DF91D1004A8B8476369A3
:10C61000A4F810B013FA89F3E36004AB06932A4B35
:10C620001A68002A3AD0136803B1083B52F8081C74
:10C63000B9B11F46A2F10803304603930AF03FFF49
:10C64000009BB4F810B02382039B81461B683146DF
:10C6500006A898476369A4F810B013FA89F3E36059
:10C660003B46DBB19F681A68B7B1083F002AE3D1A7
:10C670003B46F7E76B78FF2B09D1144B1868049001
:10C680009A889B798DF81630ADF81420ABE73946BF
:10C690000CF045F90346F1E7002ACDD100230693BB
:10C6A000297A3046013108F1FF380AF0F0FE5FFACE
:10C6B00088F845E72C130020781300207BC0030086
:10C6C0003CA8030094C003007013002057B8030077
:10C6D000F8B5054622480CF04CF943070F463CD507
:10C6E0002A78012A03D96FF015042046F8BD6B782B
:10C6F0000F2BF8D86888031F9BB243F6FC74A34243
:10C70000F1D8A9880B1F9BB2A342ECD88842EAD388
:10C710007AB914480022002308F0C0F80446002823
:10C72000E3D1FFF7B3FD044640B10E4808F02EF9FF
:10C73000DBE70CF00FF90028EBD1D4E72868696833
:10C74000094E0A4B03C6A868306020461F60FFF7F9
:10C75000B5FE044606F12400E8E76FF00A04C4E7DA
:10C76000AC0100205C13002030130020781300205F
:10C7700000F1070C2CF0030C10B4541E1860A4B286
:10C78000ACF80020023A93B201FB04F24FF0000C27
:10C7900040F802C074B103FB011403FB01F2204412
:10C7A000121B4FF6FF7C013B9BB263458050A0EB10
:10C7B0000100F8D110BC70470346006810B1026850
:10C7C0000AB91A60704700F1070C2CF0030CD11D58
:10C7D000BCF800C021F003010CF1FF3CA1F800C03F
:10C7E000EFE700BF0B687BB1073323F003031A8820
:10C7F000013292B20346D1F800C043F807CB23F0D0
:10C8000003031A80086070470122F3E7531E1144A6
:10C810009BB242B1DB430138CA1811F8013D00F860
:10C82000013F9142F9D17047014402E010F8013B09
:10C830001BB98842FAD1002070470120704700BF21
:10C8400010600860704700BFD2F800C0CCF800004C
:10C85000D2F800C0CCF8041010607047884203D0B2
:10C860001AB1436813607047002070470B68834219
:10C8700009D02AB1586810601A680A6018467047D3
:10C88000002BF9D1FAE70023F8E700BF2DE9F041CA
:10C89000DFF830800C4E0C2706F130044546221D8F
:10C8A000214628460C3CFFF7CBFFA642A5F1080520
:10C8B000F5D1043F3B1DA8F12008A6F13006EBD1CD
:10C8C000BDE8F081F813002084140020F8B5064676
:10C8D0001C460D4602B322786378D21A12F0030286
:10C8E0003AD1274F71004FEA450C3144AC448900DE
:10C8F00001EB0C1101330431DBB27A18606823704C
:10C900002146FFF7A1FF1F4B0122294630465A5509
:10C9100003F054FD0020F8BD03F03AFD0028DAD002
:10C920002946304603F026FD0028D4D005EB450209
:10C9300006EB4601124F6378120102EB81023A4482
:10C940007100907AD27A90424FEA450C0CD0207850
:10C95000C01A10F00302C8D0012A03D00133DBB2A1
:10C960002370D0E71046F8BD2278D21A920702D081
:10C970000233DBB22370D4E902039847CAE700BF51
:10C98000001400207C1300202DE9F04FDFF86491A3
:10C9900019F8003089B0002B5AD0DFF85CA13C2296
:10C9A00004234FF0000B00EB400712FB003303247D
:10C9B000CDE904BB09F800B00AEB07170393029412
:10C9C0008346B8460023B96A58F8240F079307AA8C
:10C9D000FFF744FF044607AAB4B1079D2E78697893
:10C9E000761A06F00306012E35D02B78591A01F07D
:10C9F00003010129DBB23DD1D7E90901FFF72EFF81
:10CA0000044607AA002CE8D197F82E3097F82F207B
:10CA10009A4203D087F82F300123049397F82C30E3
:10CA200097F82D209A4203D087F82D3001230593E3
:10CA3000029B5D1EEBB2FF2B0293A7F10C07C0D146
:10CA4000049AD846DDF814B012B1BBF1000F45D0FE
:10CA500009B0BDE8F08F01396970079BD3E9020383
:10CA60009847079D2A786978D3B2521A02F00302D8
:10CA7000012A21D0B86A019300224146FFF7F6FE51
:10CA80006C60019B6A786B702B789B1A03F0030330
:10CA9000012B08D0D7E9090107AAFFF7DFFE012E15
:10CAA000044698D10EE0039B6A70294620460AEBA3
:10CAB0000302FFF7C9FEEDE7D7E9090107AAFFF76F
:10CAC000CDFE0446029B8BB101235946584609F816
:10CAD0000B3003F073FC09B0BDE8F08F5A464146B5
